{
  "_format": "hh-sol-artifact-1",
  "contractName": "Voting",
  "sourceName": "contracts/Voting.sol",
  "abi": [
    {
      "anonymous": false,
      "inputs": [
        {
          "indexed": false,
          "internalType": "string",
          "name": "candidateId",
          "type": "string"
        },
        {
          "indexed": false,
          "internalType": "uint256",
          "name": "voteCount",
          "type": "uint256"
        }
      ],
      "name": "ResultsAnnounced",
      "type": "event"
    },
    {
      "anonymous": false,
      "inputs": [
        {
          "indexed": false,
          "internalType": "bytes32",
          "name": "voterId",
          "type": "bytes32"
        },
        {
          "indexed": false,
          "internalType": "bytes32",
          "name": "vote",
          "type": "bytes32"
        }
      ],
      "name": "VoteCast",
      "type": "event"
    },
    {
      "anonymous": false,
      "inputs": [
        {
          "indexed": false,
          "internalType": "bytes32",
          "name": "voterId",
          "type": "bytes32"
        }
      ],
      "name": "VoterRegistered",
      "type": "event"
    },
    {
      "inputs": [
        {
          "internalType": "string",
          "name": "_candidateId",
          "type": "string"
        },
        {
          "internalType": "string",
          "name": "_name",
          "type": "string"
        },
        {
          "internalType": "string",
          "name": "_description",
          "type": "string"
        },
        {
          "internalType": "string",
          "name": "_imageUrl",
          "type": "string"
        }
      ],
      "name": "addCandidate",
      "outputs": [],
      "stateMutability": "nonpayable",
      "type": "function"
    },
    {
      "inputs": [
        {
          "internalType": "string",
          "name": "",
          "type": "string"
        }
      ],
      "name": "candidates",
      "outputs": [
        {
          "internalType": "string",
          "name": "candidateId",
          "type": "string"
        },
        {
          "internalType": "string",
          "name": "name",
          "type": "string"
        },
        {
          "internalType": "string",
          "name": "description",
          "type": "string"
        },
        {
          "internalType": "string",
          "name": "imageUrl",
          "type": "string"
        }
      ],
      "stateMutability": "view",
      "type": "function"
    },
    {
      "inputs": [
        {
          "internalType": "bytes32",
          "name": "voterId",
          "type": "bytes32"
        },
        {
          "internalType": "bytes32",
          "name": "encryptedVote",
          "type": "bytes32"
        }
      ],
      "name": "castVote",
      "outputs": [],
      "stateMutability": "nonpayable",
      "type": "function"
    },
    {
      "inputs": [],
      "name": "getAllVoters",
      "outputs": [
        {
          "internalType": "address[]",
          "name": "",
          "type": "address[]"
        }
      ],
      "stateMutability": "view",
      "type": "function"
    },
    {
      "inputs": [
        {
          "internalType": "string",
          "name": "candidateId",
          "type": "string"
        }
      ],
      "name": "getCandidateInfo",
      "outputs": [
        {
          "internalType": "string",
          "name": "",
          "type": "string"
        },
        {
          "internalType": "string",
          "name": "",
          "type": "string"
        },
        {
          "internalType": "string",
          "name": "",
          "type": "string"
        }
      ],
      "stateMutability": "view",
      "type": "function"
    },
    {
      "inputs": [
        {
          "internalType": "address",
          "name": "_voterAddress",
          "type": "address"
        }
      ],
      "name": "getVoterDetails",
      "outputs": [
        {
          "internalType": "bytes32",
          "name": "",
          "type": "bytes32"
        },
        {
          "internalType": "bool",
          "name": "",
          "type": "bool"
        },
        {
          "internalType": "bytes32",
          "name": "",
          "type": "bytes32"
        }
      ],
      "stateMutability": "view",
      "type": "function"
    },
    {
      "inputs": [
        {
          "internalType": "address",
          "name": "_voterAddress",
          "type": "address"
        }
      ],
      "name": "registerVoter",
      "outputs": [],
      "stateMutability": "nonpayable",
      "type": "function"
    },
    {
      "inputs": [],
      "name": "tallyVotes",
      "outputs": [],
      "stateMutability": "nonpayable",
      "type": "function"
    },
    {
      "inputs": [
        {
          "internalType": "bytes32",
          "name": "",
          "type": "bytes32"
        }
      ],
      "name": "voters",
      "outputs": [
        {
          "internalType": "bytes32",
          "name": "voterId",
          "type": "bytes32"
        },
        {
          "internalType": "bool",
          "name": "hasVoted",
          "type": "bool"
        },
        {
          "internalType": "bytes32",
          "name": "vote",
          "type": "bytes32"
        }
      ],
      "stateMutability": "view",
      "type": "function"
    }
  ],
  "bytecode": "0x608060405234801561001057600080fd5b506114d2806100206000396000f3fe608060405234801561001057600080fd5b50600436106100935760003560e01c806342b03cc91161006657806342b03cc91461010e5780636721d18d1461012a578063b61add9a14610146578063ba71bef014610178578063c5539cc2146101aa57610093565b806335bbe70e14610098578063378a2178146100b657806337f91f23146100c057806338db6dd3146100f2575b600080fd5b6100a06101dd565b6040516100ad91906110a7565b60405180910390f35b6100be61026b565b005b6100da60048036038101906100d59190610d28565b61026d565b6040516100e9939291906110e4565b60405180910390f35b61010c60048036038101906101079190610cff565b6102a4565b005b61012860048036038101906101239190610dce565b610431565b005b610144600480360381019061013f9190610d51565b6104ed565b005b610160600480360381019061015b9190610d8d565b610630565b60405161016f93929190611144565b60405180910390f35b610192600480360381019061018d9190610cff565b6108c7565b6040516101a1939291906110e4565b60405180910390f35b6101c460048036038101906101bf9190610d8d565b610964565b6040516101d49493929190611190565b60405180910390f35b6060600280548060200260200160405190810160405280929190818152602001828054801561026157602002820191906000526020600020905b8160009054906101000a900473ffffffffffffffffffffffffffffffffffffffff1673ffffffffffffffffffffffffffffffffffffffff1681526020019060010190808311610217575b5050505050905090565b565b60006020528060005260406000206000915090508060000154908060010160009054906101000a900460ff16908060020154905083565b6000816040516020016102b79190611075565b6040516020818303038152906040528051906020012090506000801b6000808381526020019081526020016000206000015414610329576040517f08c379a000000000000000000000000000000000000000000000000000000000815260040161032090611231565b60405180910390fd5b60405180606001604052808281526020016000151581526020016000801b8152506000808381526020019081526020016000206000820151816000015560208201518160010160006101000a81548160ff021916908315150217905550604082015181600201559050506002829080600181540180825580915050600190039060005260206000200160009091909190916101000a81548173ffffffffffffffffffffffffffffffffffffffff021916908373ffffffffffffffffffffffffffffffffffffffff1602179055507fe1e93aab4d6cae623ae197f9c4d63ac5eede4c69f9d0fbc92e4dbb0766abd1158160405161042591906110c9565b60405180910390a15050565b6040518060800160405280858152602001848152602001838152602001828152506001856040516104629190611090565b9081526020016040518091039020600082015181600001908051906020019061048c929190610bca565b5060208201518160010190805190602001906104a9929190610bca565b5060408201518160020190805190602001906104c6929190610bca565b5060608201518160030190805190602001906104e3929190610bca565b5090505050505050565b6000801b600080848152602001908152602001600020600001541415610548576040517f08c379a000000000000000000000000000000000000000000000000000000000815260040161053f906111f1565b60405180910390fd5b60008083815260200190815260200160002060010160009054906101000a900460ff16156105ab576040517f08c379a00000000000000000000000000000000000000000000000000000000081526004016105a290611211565b60405180910390fd5b8060008084815260200190815260200160002060020181905550600160008084815260200190815260200160002060010160006101000a81548160ff0219169083151502179055507f98feb77d0a18cb15f50d444eb78ea1c0e7461c4c7c44c9df2a863f4af4ade56a828260405161062492919061111b565b60405180910390a15050565b606080606060006001856040516106479190611090565b90815260200160405180910390206040518060800160405290816000820180546106709061139c565b80601f016020809104026020016040519081016040528092919081815260200182805461069c9061139c565b80156106e95780601f106106be576101008083540402835291602001916106e9565b820191906000526020600020905b8154815290600101906020018083116106cc57829003601f168201915b505050505081526020016001820180546107029061139c565b80601f016020809104026020016040519081016040528092919081815260200182805461072e9061139c565b801561077b5780601f106107505761010080835404028352916020019161077b565b820191906000526020600020905b81548152906001019060200180831161075e57829003601f168201915b505050505081526020016002820180546107949061139c565b80601f01602080910402602001604051908101604052809291908181526020018280546107c09061139c565b801561080d5780601f106107e25761010080835404028352916020019161080d565b820191906000526020600020905b8154815290600101906020018083116107f057829003601f168201915b505050505081526020016003820180546108269061139c565b80601f01602080910402602001604051908101604052809291908181526020018280546108529061139c565b801561089f5780601f106108745761010080835404028352916020019161089f565b820191906000526020600020905b81548152906001019060200180831161088257829003601f168201915b5050505050815250509050806020015181604001518260600151935093509350509193909250565b600080600080846040516020016108de9190611075565b6040516020818303038152906040528051906020012090506000806000838152602001908152602001600020604051806060016040529081600082015481526020016001820160009054906101000a900460ff16151515158152602001600282015481525050905080600001518160200151826040015194509450945050509193909250565b60018180516020810182018051848252602083016020850120818352809550505050505060009150905080600001805461099d9061139c565b80601f01602080910402602001604051908101604052809291908181526020018280546109c99061139c565b8015610a165780601f106109eb57610100808354040283529160200191610a16565b820191906000526020600020905b8154815290600101906020018083116109f957829003601f168201915b505050505090806001018054610a2b9061139c565b80601f0160208091040260200160405190810160405280929190818152602001828054610a579061139c565b8015610aa45780601f10610a7957610100808354040283529160200191610aa4565b820191906000526020600020905b815481529060010190602001808311610a8757829003601f168201915b505050505090806002018054610ab99061139c565b80601f0160208091040260200160405190810160405280929190818152602001828054610ae59061139c565b8015610b325780601f10610b0757610100808354040283529160200191610b32565b820191906000526020600020905b815481529060010190602001808311610b1557829003601f168201915b505050505090806003018054610b479061139c565b80601f0160208091040260200160405190810160405280929190818152602001828054610b739061139c565b8015610bc05780601f10610b9557610100808354040283529160200191610bc0565b820191906000526020600020905b815481529060010190602001808311610ba357829003601f168201915b5050505050905084565b828054610bd69061139c565b90600052602060002090601f016020900481019282610bf85760008555610c3f565b82601f10610c1157805160ff1916838001178555610c3f565b82800160010185558215610c3f579182015b82811115610c3e578251825591602001919060010190610c23565b5b509050610c4c9190610c50565b5090565b5b80821115610c69576000816000905550600101610c51565b5090565b6000610c80610c7b84611282565b611251565b905082815260208101848484011115610c9857600080fd5b610ca384828561135a565b509392505050565b600081359050610cba8161146e565b92915050565b600081359050610ccf81611485565b92915050565b600082601f830112610ce657600080fd5b8135610cf6848260208601610c6d565b91505092915050565b600060208284031215610d1157600080fd5b6000610d1f84828501610cab565b91505092915050565b600060208284031215610d3a57600080fd5b6000610d4884828501610cc0565b91505092915050565b60008060408385031215610d6457600080fd5b6000610d7285828601610cc0565b9250506020610d8385828601610cc0565b9150509250929050565b600060208284031215610d9f57600080fd5b600082013567ffffffffffffffff811115610db957600080fd5b610dc584828501610cd5565b91505092915050565b60008060008060808587031215610de457600080fd5b600085013567ffffffffffffffff811115610dfe57600080fd5b610e0a87828801610cd5565b945050602085013567ffffffffffffffff811115610e2757600080fd5b610e3387828801610cd5565b935050604085013567ffffffffffffffff811115610e5057600080fd5b610e5c87828801610cd5565b925050606085013567ffffffffffffffff811115610e7957600080fd5b610e8587828801610cd5565b91505092959194509250565b6000610e9d8383610ea9565b60208301905092915050565b610eb281611312565b82525050565b610ec9610ec482611312565b6113ce565b82525050565b6000610eda826112c2565b610ee481856112e5565b9350610eef836112b2565b8060005b83811015610f20578151610f078882610e91565b9750610f12836112d8565b925050600181019050610ef3565b5085935050505092915050565b610f3681611324565b82525050565b610f4581611330565b82525050565b6000610f56826112cd565b610f6081856112f6565b9350610f70818560208601611369565b610f7981611450565b840191505092915050565b6000610f8f826112cd565b610f998185611307565b9350610fa9818560208601611369565b80840191505092915050565b6000610fc26018836112f6565b91507f566f746572206973206e6f7420726567697374657265642e00000000000000006000830152602082019050919050565b60006110026018836112f6565b91507f566f7465722068617320616c726561647920766f7465642e00000000000000006000830152602082019050919050565b6000611042601c836112f6565b91507f566f74657220697320616c726561647920726567697374657265642e000000006000830152602082019050919050565b60006110818284610eb8565b60148201915081905092915050565b600061109c8284610f84565b915081905092915050565b600060208201905081810360008301526110c18184610ecf565b905092915050565b60006020820190506110de6000830184610f3c565b92915050565b60006060820190506110f96000830186610f3c565b6111066020830185610f2d565b6111136040830184610f3c565b949350505050565b60006040820190506111306000830185610f3c565b61113d6020830184610f3c565b9392505050565b6000606082019050818103600083015261115e8186610f4b565b905081810360208301526111728185610f4b565b905081810360408301526111868184610f4b565b9050949350505050565b600060808201905081810360008301526111aa8187610f4b565b905081810360208301526111be8186610f4b565b905081810360408301526111d28185610f4b565b905081810360608301526111e68184610f4b565b905095945050505050565b6000602082019050818103600083015261120a81610fb5565b9050919050565b6000602082019050818103600083015261122a81610ff5565b9050919050565b6000602082019050818103600083015261124a81611035565b9050919050565b6000604051905081810181811067ffffffffffffffff8211171561127857611277611421565b5b8060405250919050565b600067ffffffffffffffff82111561129d5761129c611421565b5b601f19601f8301169050602081019050919050565b6000819050602082019050919050565b600081519050919050565b600081519050919050565b6000602082019050919050565b600082825260208201905092915050565b600082825260208201905092915050565b600081905092915050565b600061131d8261133a565b9050919050565b60008115159050919050565b6000819050919050565b600073ffffffffffffffffffffffffffffffffffffffff82169050919050565b82818337600083830152505050565b60005b8381101561138757808201518184015260208101905061136c565b83811115611396576000848401525b50505050565b600060028204905060018216806113b457607f821691505b602082108114156113c8576113c76113f2565b5b50919050565b60006113d9826113e0565b9050919050565b60006113eb82611461565b9050919050565b7f4e487b7100000000000000000000000000000000000000000000000000000000600052602260045260246000fd5b7f4e487b7100000000000000000000000000000000000000000000000000000000600052604160045260246000fd5b6000601f19601f8301169050919050565b60008160601b9050919050565b61147781611312565b811461148257600080fd5b50565b61148e81611330565b811461149957600080fd5b5056fea264697066735822122096a65ba1a0932079a5971287425ccb4bbf256e8e9f5c42162f82cff7d1f77ce264736f6c63430008000033",
  "linkReferences": {},
  "deployedLinkReferences": {}
}