{
  "_format": "hh-sol-artifact-1",
  "contractName": "Voting",
  "sourceName": "contracts/Voting.sol",
  "abi": [
    {
      "inputs": [],
      "stateMutability": "nonpayable",
      "type": "constructor"
    },
    {
      "inputs": [
        {
          "internalType": "address",
          "name": "owner",
          "type": "address"
        }
      ],
      "name": "OwnableInvalidOwner",
      "type": "error"
    },
    {
      "inputs": [
        {
          "internalType": "address",
          "name": "account",
          "type": "address"
        }
      ],
      "name": "OwnableUnauthorizedAccount",
      "type": "error"
    },
    {
      "anonymous": false,
      "inputs": [
        {
          "indexed": false,
          "internalType": "string",
          "name": "candidateId",
          "type": "string"
        }
      ],
      "name": "CandidateAdded",
      "type": "event"
    },
    {
      "anonymous": false,
      "inputs": [
        {
          "indexed": true,
          "internalType": "address",
          "name": "previousOwner",
          "type": "address"
        },
        {
          "indexed": true,
          "internalType": "address",
          "name": "newOwner",
          "type": "address"
        }
      ],
      "name": "OwnershipTransferred",
      "type": "event"
    },
    {
      "anonymous": false,
      "inputs": [
        {
          "indexed": false,
          "internalType": "string",
          "name": "candidateId",
          "type": "string"
        },
        {
          "indexed": false,
          "internalType": "uint256",
          "name": "voteCount",
          "type": "uint256"
        }
      ],
      "name": "ResultsAnnounced",
      "type": "event"
    },
    {
      "anonymous": false,
      "inputs": [
        {
          "indexed": false,
          "internalType": "bytes32",
          "name": "voterId",
          "type": "bytes32"
        },
        {
          "indexed": false,
          "internalType": "bytes32",
          "name": "vote",
          "type": "bytes32"
        }
      ],
      "name": "VoteCast",
      "type": "event"
    },
    {
      "anonymous": false,
      "inputs": [
        {
          "indexed": false,
          "internalType": "bytes32",
          "name": "voterId",
          "type": "bytes32"
        }
      ],
      "name": "VoterRegistered",
      "type": "event"
    },
    {
      "inputs": [
        {
          "internalType": "string",
          "name": "_candidateId",
          "type": "string"
        },
        {
          "internalType": "string",
          "name": "_name",
          "type": "string"
        },
        {
          "internalType": "string",
          "name": "_description",
          "type": "string"
        },
        {
          "internalType": "string",
          "name": "_imageUrl",
          "type": "string"
        }
      ],
      "name": "addCandidate",
      "outputs": [],
      "stateMutability": "nonpayable",
      "type": "function"
    },
    {
      "inputs": [
        {
          "internalType": "string",
          "name": "",
          "type": "string"
        }
      ],
      "name": "candidates",
      "outputs": [
        {
          "internalType": "string",
          "name": "candidateId",
          "type": "string"
        },
        {
          "internalType": "string",
          "name": "name",
          "type": "string"
        },
        {
          "internalType": "string",
          "name": "description",
          "type": "string"
        },
        {
          "internalType": "string",
          "name": "imageUrl",
          "type": "string"
        }
      ],
      "stateMutability": "view",
      "type": "function"
    },
    {
      "inputs": [
        {
          "internalType": "bytes32",
          "name": "voterId",
          "type": "bytes32"
        },
        {
          "internalType": "bytes32",
          "name": "encryptedVote",
          "type": "bytes32"
        }
      ],
      "name": "castVote",
      "outputs": [],
      "stateMutability": "nonpayable",
      "type": "function"
    },
    {
      "inputs": [],
      "name": "getAllCandidates",
      "outputs": [
        {
          "internalType": "string[]",
          "name": "",
          "type": "string[]"
        }
      ],
      "stateMutability": "view",
      "type": "function"
    },
    {
      "inputs": [],
      "name": "getAllVoters",
      "outputs": [
        {
          "internalType": "address[]",
          "name": "",
          "type": "address[]"
        }
      ],
      "stateMutability": "view",
      "type": "function"
    },
    {
      "inputs": [
        {
          "internalType": "string",
          "name": "candidateId",
          "type": "string"
        }
      ],
      "name": "getCandidateInfo",
      "outputs": [
        {
          "internalType": "string",
          "name": "",
          "type": "string"
        },
        {
          "internalType": "string",
          "name": "",
          "type": "string"
        },
        {
          "internalType": "string",
          "name": "",
          "type": "string"
        }
      ],
      "stateMutability": "view",
      "type": "function"
    },
    {
      "inputs": [
        {
          "internalType": "address",
          "name": "_voterAddress",
          "type": "address"
        }
      ],
      "name": "getVoterDetails",
      "outputs": [
        {
          "internalType": "address",
          "name": "",
          "type": "address"
        },
        {
          "internalType": "bool",
          "name": "",
          "type": "bool"
        },
        {
          "internalType": "bytes32",
          "name": "",
          "type": "bytes32"
        }
      ],
      "stateMutability": "view",
      "type": "function"
    },
    {
      "inputs": [],
      "name": "owner",
      "outputs": [
        {
          "internalType": "address",
          "name": "",
          "type": "address"
        }
      ],
      "stateMutability": "view",
      "type": "function"
    },
    {
      "inputs": [
        {
          "internalType": "address",
          "name": "_voterAddress",
          "type": "address"
        }
      ],
      "name": "registerVoter",
      "outputs": [],
      "stateMutability": "nonpayable",
      "type": "function"
    },
    {
      "inputs": [],
      "name": "renounceOwnership",
      "outputs": [],
      "stateMutability": "nonpayable",
      "type": "function"
    },
    {
      "inputs": [],
      "name": "tallyVotes",
      "outputs": [],
      "stateMutability": "nonpayable",
      "type": "function"
    },
    {
      "inputs": [
        {
          "internalType": "address",
          "name": "newOwner",
          "type": "address"
        }
      ],
      "name": "transferOwnership",
      "outputs": [],
      "stateMutability": "nonpayable",
      "type": "function"
    },
    {
      "inputs": [
        {
          "internalType": "string",
          "name": "",
          "type": "string"
        }
      ],
      "name": "voteCounts",
      "outputs": [
        {
          "internalType": "uint256",
          "name": "",
          "type": "uint256"
        }
      ],
      "stateMutability": "view",
      "type": "function"
    },
    {
      "inputs": [
        {
          "internalType": "bytes32",
          "name": "",
          "type": "bytes32"
        }
      ],
      "name": "voters",
      "outputs": [
        {
          "internalType": "bytes32",
          "name": "voterId",
          "type": "bytes32"
        },
        {
          "internalType": "bool",
          "name": "hasVoted",
          "type": "bool"
        },
        {
          "internalType": "bytes32",
          "name": "vote",
          "type": "bytes32"
        }
      ],
      "stateMutability": "view",
      "type": "function"
    }
  ],
  "bytecode": "0x608060405234801561000f575f80fd5b50335f73ffffffffffffffffffffffffffffffffffffffff168173ffffffffffffffffffffffffffffffffffffffff1603610081575f6040517f1e4fbdf70000000000000000000000000000000000000000000000000000000081526004016100789190610196565b60405180910390fd5b6100908161009660201b60201c565b506101af565b5f805f9054906101000a900473ffffffffffffffffffffffffffffffffffffffff169050815f806101000a81548173ffffffffffffffffffffffffffffffffffffffff021916908373ffffffffffffffffffffffffffffffffffffffff1602179055508173ffffffffffffffffffffffffffffffffffffffff168173ffffffffffffffffffffffffffffffffffffffff167f8be0079c531659141344cd1fd0a4f28419497f9722a3daafe3b4186f6b6457e060405160405180910390a35050565b5f73ffffffffffffffffffffffffffffffffffffffff82169050919050565b5f61018082610157565b9050919050565b61019081610176565b82525050565b5f6020820190506101a95f830184610187565b92915050565b612401806101bc5f395ff3fe608060405234801561000f575f80fd5b50600436106100e8575f3560e01c80636721d18d1161008a578063b61add9a11610064578063b61add9a14610210578063ba71bef014610242578063c5539cc214610274578063f2fde38b146102a7576100e8565b80636721d18d146101cc578063715018a6146101e85780638da5cb5b146101f2576100e8565b806337f91f23116100c657806337f91f231461013257806338db6dd3146101645780634205717d1461018057806342b03cc9146101b0576100e8565b80632e6997fe146100ec57806335bbe70e1461010a578063378a217814610128575b5f80fd5b6100f46102c3565b6040516101019190611598565b60405180910390f35b610112610397565b60405161011f919061169f565b60405180910390f35b610130610422565b005b61014c60048036038101906101479190611703565b610652565b60405161015b93929190611757565b60405180910390f35b61017e600480360381019061017991906117b6565b610684565b005b61019a6004803603810190610195919061190d565b61080c565b6040516101a7919061196c565b60405180910390f35b6101ca60048036038101906101c59190611985565b610839565b005b6101e660048036038101906101e19190611a59565b6109b6565b005b6101f0610b57565b005b6101fa610b6a565b6040516102079190611aa6565b60405180910390f35b61022a6004803603810190610225919061190d565b610b91565b60405161023993929190611b07565b60405180910390f35b61025c600480360381019061025791906117b6565b610e1e565b60405161026b93929190611b51565b60405180910390f35b61028e6004803603810190610289919061190d565b610ef8565b60405161029e9493929190611b86565b60405180910390f35b6102c160048036038101906102bc91906117b6565b611154565b005b60606004805480602002602001604051908101604052809291908181526020015f905b8282101561038e578382905f5260205f2001805461030390611c12565b80601f016020809104026020016040519081016040528092919081815260200182805461032f90611c12565b801561037a5780601f106103515761010080835404028352916020019161037a565b820191905f5260205f20905b81548152906001019060200180831161035d57829003601f168201915b5050505050815260200190600101906102e6565b50505050905090565b6060600380548060200260200160405190810160405280929190818152602001828054801561041857602002820191905f5260205f20905b815f9054906101000a900473ffffffffffffffffffffffffffffffffffffffff1673ffffffffffffffffffffffffffffffffffffffff16815260200190600101908083116103cf575b5050505050905090565b61042a6111d8565b5f5b600480549050811015610484575f6005600483815481106104505761044f611c42565b5b905f5260205f20016040516104659190611d0b565b908152602001604051809103902081905550808060010191505061042c565b505f5b6003805490508110156105a5575f600382815481106104a9576104a8611c42565b5b905f5260205f20015f9054906101000a900473ffffffffffffffffffffffffffffffffffffffff166040516020016104e19190611d66565b6040516020818303038152906040528051906020012090505f60015f8381526020019081526020015f206040518060600160405290815f8201548152602001600182015f9054906101000a900460ff161515151581526020016002820154815250509050806020015115610596575f61055d826040015161125f565b905060016005826040516105719190611db0565b90815260200160405180910390205f82825461058d9190611df3565b92505081905550505b50508080600101915050610487565b505f5b60048054905081101561064f577fc4a58db5ca2d4080ba095a658eb26b3a4344ced39cc2ec6c0426818a8b4afff4600482815481106105ea576105e9611c42565b5b905f5260205f200160056004848154811061060857610607611c42565b5b905f5260205f200160405161061d9190611d0b565b90815260200160405180910390205460405161063a929190611ea7565b60405180910390a180806001019150506105a8565b50565b6001602052805f5260405f205f91509050805f015490806001015f9054906101000a900460ff16908060020154905083565b61068c6111d8565b5f8160405160200161069e9190611d66565b6040516020818303038152906040528051906020012090505f801b60015f8381526020019081526020015f205f01541461070d576040517f08c379a000000000000000000000000000000000000000000000000000000000815260040161070490611f1f565b60405180910390fd5b60405180606001604052808281526020015f151581526020015f801b81525060015f8381526020019081526020015f205f820151815f01556020820151816001015f6101000a81548160ff02191690831515021790555060408201518160020155905050600382908060018154018082558091505060019003905f5260205f20015f9091909190916101000a81548173ffffffffffffffffffffffffffffffffffffffff021916908373ffffffffffffffffffffffffffffffffffffffff1602179055507fe1e93aab4d6cae623ae197f9c4d63ac5eede4c69f9d0fbc92e4dbb0766abd115816040516108009190611f3d565b60405180910390a15050565b6005818051602081018201805184825260208301602085012081835280955050505050505f915090505481565b6108416111d8565b5f6002856040516108529190611db0565b90815260200160405180910390205f01805461086d90611c12565b9050146108af576040517f08c379a00000000000000000000000000000000000000000000000000000000081526004016108a690611fa0565b60405180910390fd5b6040518060800160405280858152602001848152602001838152602001828152506002856040516108e09190611db0565b90815260200160405180910390205f820151815f0190816109019190612149565b5060208201518160010190816109179190612149565b50604082015181600201908161092d9190612149565b5060608201518160030190816109439190612149565b50905050600484908060018154018082558091505060019003905f5260205f20015f9091909190915090816109789190612149565b507ff29562dad1599aea0ebb142466120aab326d5efa8f839df82a9c064bf78e8938846040516109a89190612218565b60405180910390a150505050565b5f801b60015f8481526020019081526020015f205f015403610a0d576040517f08c379a0000000000000000000000000000000000000000000000000000000008152600401610a0490612282565b60405180910390fd5b8133604051602001610a1f9190611d66565b6040516020818303038152906040528051906020012014610a75576040517f08c379a0000000000000000000000000000000000000000000000000000000008152600401610a6c906122ea565b60405180910390fd5b60015f8381526020019081526020015f206001015f9054906101000a900460ff1615610ad6576040517f08c379a0000000000000000000000000000000000000000000000000000000008152600401610acd90612352565b60405180910390fd5b8060015f8481526020019081526020015f20600201819055506001805f8481526020019081526020015f206001015f6101000a81548160ff0219169083151502179055507f98feb77d0a18cb15f50d444eb78ea1c0e7461c4c7c44c9df2a863f4af4ade56a8282604051610b4b929190612370565b60405180910390a15050565b610b5f6111d8565b610b685f6113a5565b565b5f805f9054906101000a900473ffffffffffffffffffffffffffffffffffffffff16905090565b60608060605f600285604051610ba79190611db0565b90815260200160405180910390206040518060800160405290815f82018054610bcf90611c12565b80601f0160208091040260200160405190810160405280929190818152602001828054610bfb90611c12565b8015610c465780601f10610c1d57610100808354040283529160200191610c46565b820191905f5260205f20905b815481529060010190602001808311610c2957829003601f168201915b50505050508152602001600182018054610c5f90611c12565b80601f0160208091040260200160405190810160405280929190818152602001828054610c8b90611c12565b8015610cd65780601f10610cad57610100808354040283529160200191610cd6565b820191905f5260205f20905b815481529060010190602001808311610cb957829003601f168201915b50505050508152602001600282018054610cef90611c12565b80601f0160208091040260200160405190810160405280929190818152602001828054610d1b90611c12565b8015610d665780601f10610d3d57610100808354040283529160200191610d66565b820191905f5260205f20905b815481529060010190602001808311610d4957829003601f168201915b50505050508152602001600382018054610d7f90611c12565b80601f0160208091040260200160405190810160405280929190818152602001828054610dab90611c12565b8015610df65780601f10610dcd57610100808354040283529160200191610df6565b820191905f5260205f20905b815481529060010190602001808311610dd957829003601f168201915b5050505050815250509050806020015181604001518260600151935093509350509193909250565b5f805f8084604051602001610e339190611d66565b6040516020818303038152906040528051906020012090505f60015f8381526020019081526020015f206040518060600160405290815f8201548152602001600182015f9054906101000a900460ff1615151515815260200160028201548152505090505f801b815f015103610ede576040517f08c379a0000000000000000000000000000000000000000000000000000000008152600401610ed590612282565b60405180910390fd5b858160200151826040015194509450945050509193909250565b6002818051602081018201805184825260208301602085012081835280955050505050505f91509050805f018054610f2f90611c12565b80601f0160208091040260200160405190810160405280929190818152602001828054610f5b90611c12565b8015610fa65780601f10610f7d57610100808354040283529160200191610fa6565b820191905f5260205f20905b815481529060010190602001808311610f8957829003601f168201915b505050505090806001018054610fbb90611c12565b80601f0160208091040260200160405190810160405280929190818152602001828054610fe790611c12565b80156110325780601f1061100957610100808354040283529160200191611032565b820191905f5260205f20905b81548152906001019060200180831161101557829003601f168201915b50505050509080600201805461104790611c12565b80601f016020809104026020016040519081016040528092919081815260200182805461107390611c12565b80156110be5780601f10611095576101008083540402835291602001916110be565b820191905f5260205f20905b8154815290600101906020018083116110a157829003601f168201915b5050505050908060030180546110d390611c12565b80601f01602080910402602001604051908101604052809291908181526020018280546110ff90611c12565b801561114a5780601f106111215761010080835404028352916020019161114a565b820191905f5260205f20905b81548152906001019060200180831161112d57829003601f168201915b5050505050905084565b61115c6111d8565b5f73ffffffffffffffffffffffffffffffffffffffff168173ffffffffffffffffffffffffffffffffffffffff16036111cc575f6040517f1e4fbdf70000000000000000000000000000000000000000000000000000000081526004016111c39190611aa6565b60405180910390fd5b6111d5816113a5565b50565b6111e0611466565b73ffffffffffffffffffffffffffffffffffffffff166111fe610b6a565b73ffffffffffffffffffffffffffffffffffffffff161461125d57611221611466565b6040517f118cdaa70000000000000000000000000000000000000000000000000000000081526004016112549190611aa6565b60405180910390fd5b565b60605f5b60208160ff161080156112b457505f60f81b838260ff166020811061128b5761128a611c42565b5b1a60f81b7effffffffffffffffffffffffffffffffffffffffffffffffffffffffffffff191614155b156112cc5780806112c4906123a3565b915050611263565b5f8160ff1667ffffffffffffffff8111156112ea576112e96117e9565b5b6040519080825280601f01601f19166020018201604052801561131c5781602001600182028036833780820191505090505b5090505f5b8260ff168160ff16101561139a57848160ff166020811061134557611344611c42565b5b1a60f81b828260ff168151811061135f5761135e611c42565b5b60200101907effffffffffffffffffffffffffffffffffffffffffffffffffffffffffffff191690815f1a9053508080600101915050611321565b508092505050919050565b5f805f9054906101000a900473ffffffffffffffffffffffffffffffffffffffff169050815f806101000a81548173ffffffffffffffffffffffffffffffffffffffff021916908373ffffffffffffffffffffffffffffffffffffffff1602179055508173ffffffffffffffffffffffffffffffffffffffff168173ffffffffffffffffffffffffffffffffffffffff167f8be0079c531659141344cd1fd0a4f28419497f9722a3daafe3b4186f6b6457e060405160405180910390a35050565b5f33905090565b5f81519050919050565b5f82825260208201905092915050565b5f819050602082019050919050565b5f81519050919050565b5f82825260208201905092915050565b8281835e5f83830152505050565b5f601f19601f8301169050919050565b5f6114d882611496565b6114e281856114a0565b93506114f28185602086016114b0565b6114fb816114be565b840191505092915050565b5f61151183836114ce565b905092915050565b5f602082019050919050565b5f61152f8261146d565b6115398185611477565b93508360208202850161154b85611487565b805f5b8581101561158657848403895281516115678582611506565b945061157283611519565b925060208a0199505060018101905061154e565b50829750879550505050505092915050565b5f6020820190508181035f8301526115b08184611525565b905092915050565b5f81519050919050565b5f82825260208201905092915050565b5f819050602082019050919050565b5f73ffffffffffffffffffffffffffffffffffffffff82169050919050565b5f61160a826115e1565b9050919050565b61161a81611600565b82525050565b5f61162b8383611611565b60208301905092915050565b5f602082019050919050565b5f61164d826115b8565b61165781856115c2565b9350611662836115d2565b805f5b838110156116925781516116798882611620565b975061168483611637565b925050600181019050611665565b5085935050505092915050565b5f6020820190508181035f8301526116b78184611643565b905092915050565b5f604051905090565b5f80fd5b5f80fd5b5f819050919050565b6116e2816116d0565b81146116ec575f80fd5b50565b5f813590506116fd816116d9565b92915050565b5f60208284031215611718576117176116c8565b5b5f611725848285016116ef565b91505092915050565b611737816116d0565b82525050565b5f8115159050919050565b6117518161173d565b82525050565b5f60608201905061176a5f83018661172e565b6117776020830185611748565b611784604083018461172e565b949350505050565b61179581611600565b811461179f575f80fd5b50565b5f813590506117b08161178c565b92915050565b5f602082840312156117cb576117ca6116c8565b5b5f6117d8848285016117a2565b91505092915050565b5f80fd5b5f80fd5b7f4e487b71000000000000000000000000000000000000000000000000000000005f52604160045260245ffd5b61181f826114be565b810181811067ffffffffffffffff8211171561183e5761183d6117e9565b5b80604052505050565b5f6118506116bf565b905061185c8282611816565b919050565b5f67ffffffffffffffff82111561187b5761187a6117e9565b5b611884826114be565b9050602081019050919050565b828183375f83830152505050565b5f6118b16118ac84611861565b611847565b9050828152602081018484840111156118cd576118cc6117e5565b5b6118d8848285611891565b509392505050565b5f82601f8301126118f4576118f36117e1565b5b813561190484826020860161189f565b91505092915050565b5f60208284031215611922576119216116c8565b5b5f82013567ffffffffffffffff81111561193f5761193e6116cc565b5b61194b848285016118e0565b91505092915050565b5f819050919050565b61196681611954565b82525050565b5f60208201905061197f5f83018461195d565b92915050565b5f805f806080858703121561199d5761199c6116c8565b5b5f85013567ffffffffffffffff8111156119ba576119b96116cc565b5b6119c6878288016118e0565b945050602085013567ffffffffffffffff8111156119e7576119e66116cc565b5b6119f3878288016118e0565b935050604085013567ffffffffffffffff811115611a1457611a136116cc565b5b611a20878288016118e0565b925050606085013567ffffffffffffffff811115611a4157611a406116cc565b5b611a4d878288016118e0565b91505092959194509250565b5f8060408385031215611a6f57611a6e6116c8565b5b5f611a7c858286016116ef565b9250506020611a8d858286016116ef565b9150509250929050565b611aa081611600565b82525050565b5f602082019050611ab95f830184611a97565b92915050565b5f82825260208201905092915050565b5f611ad982611496565b611ae38185611abf565b9350611af38185602086016114b0565b611afc816114be565b840191505092915050565b5f6060820190508181035f830152611b1f8186611acf565b90508181036020830152611b338185611acf565b90508181036040830152611b478184611acf565b9050949350505050565b5f606082019050611b645f830186611a97565b611b716020830185611748565b611b7e604083018461172e565b949350505050565b5f6080820190508181035f830152611b9e8187611acf565b90508181036020830152611bb28186611acf565b90508181036040830152611bc68185611acf565b90508181036060830152611bda8184611acf565b905095945050505050565b7f4e487b71000000000000000000000000000000000000000000000000000000005f52602260045260245ffd5b5f6002820490506001821680611c2957607f821691505b602082108103611c3c57611c3b611be5565b5b50919050565b7f4e487b71000000000000000000000000000000000000000000000000000000005f52603260045260245ffd5b5f81905092915050565b5f819050815f5260205f209050919050565b5f8154611c9781611c12565b611ca18186611c6f565b9450600182165f8114611cbb5760018114611cd057611d02565b60ff1983168652811515820286019350611d02565b611cd985611c79565b5f5b83811015611cfa57815481890152600182019150602081019050611cdb565b838801955050505b50505092915050565b5f611d168284611c8b565b915081905092915050565b5f8160601b9050919050565b5f611d3782611d21565b9050919050565b5f611d4882611d2d565b9050919050565b611d60611d5b82611600565b611d3e565b82525050565b5f611d718284611d4f565b60148201915081905092915050565b5f611d8a82611496565b611d948185611c6f565b9350611da48185602086016114b0565b80840191505092915050565b5f611dbb8284611d80565b915081905092915050565b7f4e487b71000000000000000000000000000000000000000000000000000000005f52601160045260245ffd5b5f611dfd82611954565b9150611e0883611954565b9250828201905080821115611e2057611e1f611dc6565b5b92915050565b5f8154611e3281611c12565b611e3c8186611abf565b9450600182165f8114611e565760018114611e6c57611e9e565b60ff198316865281151560200286019350611e9e565b611e7585611c79565b5f5b83811015611e9657815481890152600182019150602081019050611e77565b808801955050505b50505092915050565b5f6040820190508181035f830152611ebf8185611e26565b9050611ece602083018461195d565b9392505050565b7f566f74657220697320616c726561647920726567697374657265642e000000005f82015250565b5f611f09601c83611abf565b9150611f1482611ed5565b602082019050919050565b5f6020820190508181035f830152611f3681611efd565b9050919050565b5f602082019050611f505f83018461172e565b92915050565b7f43616e64696461746520616c72656164792065786973747300000000000000005f82015250565b5f611f8a601883611abf565b9150611f9582611f56565b602082019050919050565b5f6020820190508181035f830152611fb781611f7e565b9050919050565b5f6020601f8301049050919050565b5f82821b905092915050565b5f600883026120087fffffffffffffffffffffffffffffffffffffffffffffffffffffffffffffffff82611fcd565b6120128683611fcd565b95508019841693508086168417925050509392505050565b5f819050919050565b5f61204d61204861204384611954565b61202a565b611954565b9050919050565b5f819050919050565b61206683612033565b61207a61207282612054565b848454611fd9565b825550505050565b5f90565b61208e612082565b61209981848461205d565b505050565b5b818110156120bc576120b15f82612086565b60018101905061209f565b5050565b601f821115612101576120d281611c79565b6120db84611fbe565b810160208510156120ea578190505b6120fe6120f685611fbe565b83018261209e565b50505b505050565b5f82821c905092915050565b5f6121215f1984600802612106565b1980831691505092915050565b5f6121398383612112565b9150826002028217905092915050565b61215282611496565b67ffffffffffffffff81111561216b5761216a6117e9565b5b6121758254611c12565b6121808282856120c0565b5f60209050601f8311600181146121b1575f841561219f578287015190505b6121a9858261212e565b865550612210565b601f1984166121bf86611c79565b5f5b828110156121e6578489015182556001820191506020850194506020810190506121c1565b8683101561220357848901516121ff601f891682612112565b8355505b6001600288020188555050505b505050505050565b5f6020820190508181035f8301526122308184611acf565b905092915050565b7f566f746572206973206e6f7420726567697374657265642e00000000000000005f82015250565b5f61226c601883611abf565b915061227782612238565b602082019050919050565b5f6020820190508181035f83015261229981612260565b9050919050565b7f53656e646572206e6f7420617574686f72697a656400000000000000000000005f82015250565b5f6122d4601583611abf565b91506122df826122a0565b602082019050919050565b5f6020820190508181035f830152612301816122c8565b9050919050565b7f566f7465722068617320616c726561647920766f7465642e00000000000000005f82015250565b5f61233c601883611abf565b915061234782612308565b602082019050919050565b5f6020820190508181035f83015261236981612330565b9050919050565b5f6040820190506123835f83018561172e565b612390602083018461172e565b9392505050565b5f60ff82169050919050565b5f6123ad82612397565b915060ff82036123c0576123bf611dc6565b5b60018201905091905056fea26469706673582212207fa6da10418dccfe834452f9a96dd640451bf935daef035e91b64968aa3ef5b564736f6c634300081a0033",
  "linkReferences": {},
  "deployedLinkReferences": {}
}