{
  "_format": "hh-sol-artifact-1",
  "contractName": "Voting",
  "sourceName": "contracts/Voting.sol",
  "abi": [
    {
      "anonymous": false,
      "inputs": [
        {
          "indexed": false,
          "internalType": "string",
          "name": "candidateId",
          "type": "string"
        },
        {
          "indexed": false,
          "internalType": "uint256",
          "name": "voteCount",
          "type": "uint256"
        }
      ],
      "name": "ResultsAnnounced",
      "type": "event"
    },
    {
      "anonymous": false,
      "inputs": [
        {
          "indexed": false,
          "internalType": "bytes32",
          "name": "voterId",
          "type": "bytes32"
        },
        {
          "indexed": false,
          "internalType": "bytes32",
          "name": "vote",
          "type": "bytes32"
        }
      ],
      "name": "VoteCast",
      "type": "event"
    },
    {
      "anonymous": false,
      "inputs": [
        {
          "indexed": false,
          "internalType": "bytes32",
          "name": "voterId",
          "type": "bytes32"
        }
      ],
      "name": "VoterRegistered",
      "type": "event"
    },
    {
      "inputs": [
        {
          "internalType": "string",
          "name": "_candidateId",
          "type": "string"
        },
        {
          "internalType": "string",
          "name": "_name",
          "type": "string"
        },
        {
          "internalType": "string",
          "name": "_description",
          "type": "string"
        },
        {
          "internalType": "string",
          "name": "_imageUrl",
          "type": "string"
        }
      ],
      "name": "addCandidate",
      "outputs": [],
      "stateMutability": "nonpayable",
      "type": "function"
    },
    {
      "inputs": [
        {
          "internalType": "string",
          "name": "",
          "type": "string"
        }
      ],
      "name": "candidates",
      "outputs": [
        {
          "internalType": "string",
          "name": "candidateId",
          "type": "string"
        },
        {
          "internalType": "string",
          "name": "name",
          "type": "string"
        },
        {
          "internalType": "string",
          "name": "description",
          "type": "string"
        },
        {
          "internalType": "string",
          "name": "imageUrl",
          "type": "string"
        }
      ],
      "stateMutability": "view",
      "type": "function"
    },
    {
      "inputs": [
        {
          "internalType": "bytes32",
          "name": "voterId",
          "type": "bytes32"
        },
        {
          "internalType": "bytes32",
          "name": "encryptedVote",
          "type": "bytes32"
        }
      ],
      "name": "castVote",
      "outputs": [],
      "stateMutability": "nonpayable",
      "type": "function"
    },
    {
      "inputs": [
        {
          "internalType": "string",
          "name": "candidateId",
          "type": "string"
        }
      ],
      "name": "getCandidateInfo",
      "outputs": [
        {
          "internalType": "string",
          "name": "",
          "type": "string"
        },
        {
          "internalType": "string",
          "name": "",
          "type": "string"
        },
        {
          "internalType": "string",
          "name": "",
          "type": "string"
        }
      ],
      "stateMutability": "view",
      "type": "function"
    },
    {
      "inputs": [
        {
          "internalType": "address",
          "name": "_voterAddress",
          "type": "address"
        }
      ],
      "name": "registerVoter",
      "outputs": [],
      "stateMutability": "nonpayable",
      "type": "function"
    },
    {
      "inputs": [],
      "name": "tallyVotes",
      "outputs": [],
      "stateMutability": "nonpayable",
      "type": "function"
    },
    {
      "inputs": [
        {
          "internalType": "bytes32",
          "name": "",
          "type": "bytes32"
        }
      ],
      "name": "voters",
      "outputs": [
        {
          "internalType": "bytes32",
          "name": "voterId",
          "type": "bytes32"
        },
        {
          "internalType": "bool",
          "name": "hasVoted",
          "type": "bool"
        },
        {
          "internalType": "bytes32",
          "name": "vote",
          "type": "bytes32"
        }
      ],
      "stateMutability": "view",
      "type": "function"
    }
  ],
  "bytecode": "0x608060405234801561001057600080fd5b506111fe806100206000396000f3fe608060405234801561001057600080fd5b506004361061007d5760003560e01c806342b03cc91161005b57806342b03cc9146100da5780636721d18d146100f6578063b61add9a14610112578063c5539cc2146101445761007d565b8063378a21781461008257806337f91f231461008c57806338db6dd3146100be575b600080fd5b61008a610177565b005b6100a660048036038101906100a19190610b34565b610179565b6040516100b593929190610e49565b60405180910390f35b6100d860048036038101906100d39190610b0b565b6101b0565b005b6100f460048036038101906100ef9190610bda565b6102da565b005b610110600480360381019061010b9190610b5d565b610396565b005b61012c60048036038101906101279190610b99565b6104d9565b60405161013b93929190610ea9565b60405180910390f35b61015e60048036038101906101599190610b99565b610770565b60405161016e9493929190610ef5565b60405180910390f35b565b60006020528060005260406000206000915090508060000154908060010160009054906101000a900460ff16908060020154905083565b6000816040516020016101c39190610dfc565b6040516020818303038152906040528051906020012090506000801b6000808381526020019081526020016000206000015414610235576040517f08c379a000000000000000000000000000000000000000000000000000000000815260040161022c90610f96565b60405180910390fd5b60405180606001604052808281526020016000151581526020016000801b8152506000808381526020019081526020016000206000820151816000015560208201518160010160006101000a81548160ff021916908315150217905550604082015181600201559050507fe1e93aab4d6cae623ae197f9c4d63ac5eede4c69f9d0fbc92e4dbb0766abd115816040516102ce9190610e2e565b60405180910390a15050565b60405180608001604052808581526020018481526020018381526020018281525060018560405161030b9190610e17565b908152602001604051809103902060008201518160000190805190602001906103359291906109d6565b5060208201518160010190805190602001906103529291906109d6565b50604082015181600201908051906020019061036f9291906109d6565b50606082015181600301908051906020019061038c9291906109d6565b5090505050505050565b6000801b6000808481526020019081526020016000206000015414156103f1576040517f08c379a00000000000000000000000000000000000000000000000000000000081526004016103e890610f56565b60405180910390fd5b60008083815260200190815260200160002060010160009054906101000a900460ff1615610454576040517f08c379a000000000000000000000000000000000000000000000000000000000815260040161044b90610f76565b60405180910390fd5b8060008084815260200190815260200160002060020181905550600160008084815260200190815260200160002060010160006101000a81548160ff0219169083151502179055507f98feb77d0a18cb15f50d444eb78ea1c0e7461c4c7c44c9df2a863f4af4ade56a82826040516104cd929190610e80565b60405180910390a15050565b606080606060006001856040516104f09190610e17565b9081526020016040518091039020604051806080016040529081600082018054610519906110c8565b80601f0160208091040260200160405190810160405280929190818152602001828054610545906110c8565b80156105925780601f1061056757610100808354040283529160200191610592565b820191906000526020600020905b81548152906001019060200180831161057557829003601f168201915b505050505081526020016001820180546105ab906110c8565b80601f01602080910402602001604051908101604052809291908181526020018280546105d7906110c8565b80156106245780601f106105f957610100808354040283529160200191610624565b820191906000526020600020905b81548152906001019060200180831161060757829003601f168201915b5050505050815260200160028201805461063d906110c8565b80601f0160208091040260200160405190810160405280929190818152602001828054610669906110c8565b80156106b65780601f1061068b576101008083540402835291602001916106b6565b820191906000526020600020905b81548152906001019060200180831161069957829003601f168201915b505050505081526020016003820180546106cf906110c8565b80601f01602080910402602001604051908101604052809291908181526020018280546106fb906110c8565b80156107485780601f1061071d57610100808354040283529160200191610748565b820191906000526020600020905b81548152906001019060200180831161072b57829003601f168201915b5050505050815250509050806020015181604001518260600151935093509350509193909250565b6001818051602081018201805184825260208301602085012081835280955050505050506000915090508060000180546107a9906110c8565b80601f01602080910402602001604051908101604052809291908181526020018280546107d5906110c8565b80156108225780601f106107f757610100808354040283529160200191610822565b820191906000526020600020905b81548152906001019060200180831161080557829003601f168201915b505050505090806001018054610837906110c8565b80601f0160208091040260200160405190810160405280929190818152602001828054610863906110c8565b80156108b05780601f10610885576101008083540402835291602001916108b0565b820191906000526020600020905b81548152906001019060200180831161089357829003601f168201915b5050505050908060020180546108c5906110c8565b80601f01602080910402602001604051908101604052809291908181526020018280546108f1906110c8565b801561093e5780601f106109135761010080835404028352916020019161093e565b820191906000526020600020905b81548152906001019060200180831161092157829003601f168201915b505050505090806003018054610953906110c8565b80601f016020809104026020016040519081016040528092919081815260200182805461097f906110c8565b80156109cc5780601f106109a1576101008083540402835291602001916109cc565b820191906000526020600020905b8154815290600101906020018083116109af57829003601f168201915b5050505050905084565b8280546109e2906110c8565b90600052602060002090601f016020900481019282610a045760008555610a4b565b82601f10610a1d57805160ff1916838001178555610a4b565b82800160010185558215610a4b579182015b82811115610a4a578251825591602001919060010190610a2f565b5b509050610a589190610a5c565b5090565b5b80821115610a75576000816000905550600101610a5d565b5090565b6000610a8c610a8784610fe7565b610fb6565b905082815260208101848484011115610aa457600080fd5b610aaf848285611086565b509392505050565b600081359050610ac68161119a565b92915050565b600081359050610adb816111b1565b92915050565b600082601f830112610af257600080fd5b8135610b02848260208601610a79565b91505092915050565b600060208284031215610b1d57600080fd5b6000610b2b84828501610ab7565b91505092915050565b600060208284031215610b4657600080fd5b6000610b5484828501610acc565b91505092915050565b60008060408385031215610b7057600080fd5b6000610b7e85828601610acc565b9250506020610b8f85828601610acc565b9150509250929050565b600060208284031215610bab57600080fd5b600082013567ffffffffffffffff811115610bc557600080fd5b610bd184828501610ae1565b91505092915050565b60008060008060808587031215610bf057600080fd5b600085013567ffffffffffffffff811115610c0a57600080fd5b610c1687828801610ae1565b945050602085013567ffffffffffffffff811115610c3357600080fd5b610c3f87828801610ae1565b935050604085013567ffffffffffffffff811115610c5c57600080fd5b610c6887828801610ae1565b925050606085013567ffffffffffffffff811115610c8557600080fd5b610c9187828801610ae1565b91505092959194509250565b610cae610ca98261103e565b6110fa565b82525050565b610cbd81611050565b82525050565b610ccc8161105c565b82525050565b6000610cdd82611017565b610ce78185611022565b9350610cf7818560208601611095565b610d008161117c565b840191505092915050565b6000610d1682611017565b610d208185611033565b9350610d30818560208601611095565b80840191505092915050565b6000610d49601883611022565b91507f566f746572206973206e6f7420726567697374657265642e00000000000000006000830152602082019050919050565b6000610d89601883611022565b91507f566f7465722068617320616c726561647920766f7465642e00000000000000006000830152602082019050919050565b6000610dc9601c83611022565b91507f566f74657220697320616c726561647920726567697374657265642e000000006000830152602082019050919050565b6000610e088284610c9d565b60148201915081905092915050565b6000610e238284610d0b565b915081905092915050565b6000602082019050610e436000830184610cc3565b92915050565b6000606082019050610e5e6000830186610cc3565b610e6b6020830185610cb4565b610e786040830184610cc3565b949350505050565b6000604082019050610e956000830185610cc3565b610ea26020830184610cc3565b9392505050565b60006060820190508181036000830152610ec38186610cd2565b90508181036020830152610ed78185610cd2565b90508181036040830152610eeb8184610cd2565b9050949350505050565b60006080820190508181036000830152610f0f8187610cd2565b90508181036020830152610f238186610cd2565b90508181036040830152610f378185610cd2565b90508181036060830152610f4b8184610cd2565b905095945050505050565b60006020820190508181036000830152610f6f81610d3c565b9050919050565b60006020820190508181036000830152610f8f81610d7c565b9050919050565b60006020820190508181036000830152610faf81610dbc565b9050919050565b6000604051905081810181811067ffffffffffffffff82111715610fdd57610fdc61114d565b5b8060405250919050565b600067ffffffffffffffff8211156110025761100161114d565b5b601f19601f8301169050602081019050919050565b600081519050919050565b600082825260208201905092915050565b600081905092915050565b600061104982611066565b9050919050565b60008115159050919050565b6000819050919050565b600073ffffffffffffffffffffffffffffffffffffffff82169050919050565b82818337600083830152505050565b60005b838110156110b3578082015181840152602081019050611098565b838111156110c2576000848401525b50505050565b600060028204905060018216806110e057607f821691505b602082108114156110f4576110f361111e565b5b50919050565b60006111058261110c565b9050919050565b60006111178261118d565b9050919050565b7f4e487b7100000000000000000000000000000000000000000000000000000000600052602260045260246000fd5b7f4e487b7100000000000000000000000000000000000000000000000000000000600052604160045260246000fd5b6000601f19601f8301169050919050565b60008160601b9050919050565b6111a38161103e565b81146111ae57600080fd5b50565b6111ba8161105c565b81146111c557600080fd5b5056fea26469706673582212209ade9cee556d12f35336a6add5b45f208032f458cb36f0c378cb28ec0e1af9ce64736f6c63430008000033",
  "linkReferences": {},
  "deployedLinkReferences": {}
}