{
  "_format": "hh-sol-artifact-1",
  "contractName": "Voting",
  "sourceName": "contracts/Voting.sol",
  "abi": [
    {
      "anonymous": false,
      "inputs": [
        {
          "indexed": false,
          "internalType": "string",
          "name": "candidateId",
          "type": "string"
        },
        {
          "indexed": false,
          "internalType": "uint256",
          "name": "voteCount",
          "type": "uint256"
        }
      ],
      "name": "ResultsAnnounced",
      "type": "event"
    },
    {
      "anonymous": false,
      "inputs": [
        {
          "indexed": false,
          "internalType": "bytes32",
          "name": "voterId",
          "type": "bytes32"
        },
        {
          "indexed": false,
          "internalType": "bytes32",
          "name": "vote",
          "type": "bytes32"
        }
      ],
      "name": "VoteCast",
      "type": "event"
    },
    {
      "anonymous": false,
      "inputs": [
        {
          "indexed": false,
          "internalType": "bytes32",
          "name": "voterId",
          "type": "bytes32"
        }
      ],
      "name": "VoterRegistered",
      "type": "event"
    },
    {
      "inputs": [
        {
          "internalType": "string",
          "name": "_candidateId",
          "type": "string"
        },
        {
          "internalType": "string",
          "name": "_name",
          "type": "string"
        },
        {
          "internalType": "string",
          "name": "_description",
          "type": "string"
        },
        {
          "internalType": "string",
          "name": "_imageUrl",
          "type": "string"
        }
      ],
      "name": "addCandidate",
      "outputs": [],
      "stateMutability": "nonpayable",
      "type": "function"
    },
    {
      "inputs": [
        {
          "internalType": "string",
          "name": "",
          "type": "string"
        }
      ],
      "name": "candidates",
      "outputs": [
        {
          "internalType": "string",
          "name": "candidateId",
          "type": "string"
        },
        {
          "internalType": "string",
          "name": "name",
          "type": "string"
        },
        {
          "internalType": "string",
          "name": "description",
          "type": "string"
        },
        {
          "internalType": "string",
          "name": "imageUrl",
          "type": "string"
        }
      ],
      "stateMutability": "view",
      "type": "function"
    },
    {
      "inputs": [
        {
          "internalType": "bytes32",
          "name": "voterId",
          "type": "bytes32"
        },
        {
          "internalType": "bytes32",
          "name": "encryptedVote",
          "type": "bytes32"
        }
      ],
      "name": "castVote",
      "outputs": [],
      "stateMutability": "nonpayable",
      "type": "function"
    },
    {
      "inputs": [
        {
          "internalType": "string",
          "name": "candidateId",
          "type": "string"
        }
      ],
      "name": "getCandidateInfo",
      "outputs": [
        {
          "internalType": "string",
          "name": "",
          "type": "string"
        },
        {
          "internalType": "string",
          "name": "",
          "type": "string"
        },
        {
          "internalType": "string",
          "name": "",
          "type": "string"
        }
      ],
      "stateMutability": "view",
      "type": "function"
    },
    {
      "inputs": [
        {
          "internalType": "address",
          "name": "_voterAddress",
          "type": "address"
        }
      ],
      "name": "getVoterDetails",
      "outputs": [
        {
          "internalType": "address",
          "name": "",
          "type": "address"
        },
        {
          "internalType": "bool",
          "name": "",
          "type": "bool"
        },
        {
          "internalType": "bytes32",
          "name": "",
          "type": "bytes32"
        }
      ],
      "stateMutability": "view",
      "type": "function"
    },
    {
      "inputs": [
        {
          "internalType": "address",
          "name": "_voterAddress",
          "type": "address"
        }
      ],
      "name": "registerVoter",
      "outputs": [],
      "stateMutability": "nonpayable",
      "type": "function"
    },
    {
      "inputs": [],
      "name": "tallyVotes",
      "outputs": [],
      "stateMutability": "nonpayable",
      "type": "function"
    },
    {
      "inputs": [
        {
          "internalType": "bytes32",
          "name": "",
          "type": "bytes32"
        }
      ],
      "name": "voters",
      "outputs": [
        {
          "internalType": "bytes32",
          "name": "voterId",
          "type": "bytes32"
        },
        {
          "internalType": "bool",
          "name": "hasVoted",
          "type": "bool"
        },
        {
          "internalType": "bytes32",
          "name": "vote",
          "type": "bytes32"
        }
      ],
      "stateMutability": "view",
      "type": "function"
    }
  ],
  "bytecode": "0x6080604052348015600e575f80fd5b506114fb8061001c5f395ff3fe608060405234801561000f575f80fd5b5060043610610086575f3560e01c80636721d18d116100595780636721d18d146100fe578063b61add9a1461011a578063ba71bef01461014c578063c5539cc21461017e57610086565b8063378a21781461008a57806337f91f231461009457806338db6dd3146100c657806342b03cc9146100e2575b5f80fd5b6100926101b1565b005b6100ae60048036038101906100a99190610adc565b6101b3565b6040516100bd93929190610b30565b60405180910390f35b6100e060048036038101906100db9190610bbf565b6101e4565b005b6100fc60048036038101906100f79190610d26565b610302565b005b61011860048036038101906101139190610dfa565b6103a0565b005b610134600480360381019061012f9190610e38565b6104d6565b60405161014393929190610edf565b60405180910390f35b61016660048036038101906101619190610bbf565b610763565b60405161017593929190610f38565b60405180910390f35b61019860048036038101906101939190610e38565b61083c565b6040516101a89493929190610f6d565b60405180910390f35b565b5f602052805f5260405f205f91509050805f015490806001015f9054906101000a900460ff16908060020154905083565b5f816040516020016101f69190611011565b6040516020818303038152906040528051906020012090505f801b5f808381526020019081526020015f205f015414610264576040517f08c379a000000000000000000000000000000000000000000000000000000000815260040161025b90611075565b60405180910390fd5b60405180606001604052808281526020015f151581526020015f801b8152505f808381526020019081526020015f205f820151815f01556020820151816001015f6101000a81548160ff021916908315150217905550604082015181600201559050507fe1e93aab4d6cae623ae197f9c4d63ac5eede4c69f9d0fbc92e4dbb0766abd115816040516102f69190611093565b60405180910390a15050565b60405180608001604052808581526020018481526020018381526020018281525060018560405161033391906110e6565b90815260200160405180910390205f820151815f01908161035491906112ff565b50602082015181600101908161036a91906112ff565b50604082015181600201908161038091906112ff565b50606082015181600301908161039691906112ff565b5090505050505050565b5f801b5f808481526020019081526020015f205f0154036103f6576040517f08c379a00000000000000000000000000000000000000000000000000000000081526004016103ed90611418565b60405180910390fd5b5f808381526020019081526020015f206001015f9054906101000a900460ff1615610456576040517f08c379a000000000000000000000000000000000000000000000000000000000815260040161044d90611480565b60405180910390fd5b805f808481526020019081526020015f206002018190555060015f808481526020019081526020015f206001015f6101000a81548160ff0219169083151502179055507f98feb77d0a18cb15f50d444eb78ea1c0e7461c4c7c44c9df2a863f4af4ade56a82826040516104ca92919061149e565b60405180910390a15050565b60608060605f6001856040516104ec91906110e6565b90815260200160405180910390206040518060800160405290815f8201805461051490611129565b80601f016020809104026020016040519081016040528092919081815260200182805461054090611129565b801561058b5780601f106105625761010080835404028352916020019161058b565b820191905f5260205f20905b81548152906001019060200180831161056e57829003601f168201915b505050505081526020016001820180546105a490611129565b80601f01602080910402602001604051908101604052809291908181526020018280546105d090611129565b801561061b5780601f106105f25761010080835404028352916020019161061b565b820191905f5260205f20905b8154815290600101906020018083116105fe57829003601f168201915b5050505050815260200160028201805461063490611129565b80601f016020809104026020016040519081016040528092919081815260200182805461066090611129565b80156106ab5780601f10610682576101008083540402835291602001916106ab565b820191905f5260205f20905b81548152906001019060200180831161068e57829003601f168201915b505050505081526020016003820180546106c490611129565b80601f01602080910402602001604051908101604052809291908181526020018280546106f090611129565b801561073b5780601f106107125761010080835404028352916020019161073b565b820191905f5260205f20905b81548152906001019060200180831161071e57829003601f168201915b5050505050815250509050806020015181604001518260600151935093509350509193909250565b5f805f80846040516020016107789190611011565b6040516020818303038152906040528051906020012090505f805f8381526020019081526020015f206040518060600160405290815f8201548152602001600182015f9054906101000a900460ff1615151515815260200160028201548152505090505f801b815f015103610822576040517f08c379a000000000000000000000000000000000000000000000000000000000815260040161081990611418565b60405180910390fd5b858160200151826040015194509450945050509193909250565b6001818051602081018201805184825260208301602085012081835280955050505050505f91509050805f01805461087390611129565b80601f016020809104026020016040519081016040528092919081815260200182805461089f90611129565b80156108ea5780601f106108c1576101008083540402835291602001916108ea565b820191905f5260205f20905b8154815290600101906020018083116108cd57829003601f168201915b5050505050908060010180546108ff90611129565b80601f016020809104026020016040519081016040528092919081815260200182805461092b90611129565b80156109765780601f1061094d57610100808354040283529160200191610976565b820191905f5260205f20905b81548152906001019060200180831161095957829003601f168201915b50505050509080600201805461098b90611129565b80601f01602080910402602001604051908101604052809291908181526020018280546109b790611129565b8015610a025780601f106109d957610100808354040283529160200191610a02565b820191905f5260205f20905b8154815290600101906020018083116109e557829003601f168201915b505050505090806003018054610a1790611129565b80601f0160208091040260200160405190810160405280929190818152602001828054610a4390611129565b8015610a8e5780601f10610a6557610100808354040283529160200191610a8e565b820191905f5260205f20905b815481529060010190602001808311610a7157829003601f168201915b5050505050905084565b5f604051905090565b5f80fd5b5f80fd5b5f819050919050565b610abb81610aa9565b8114610ac5575f80fd5b50565b5f81359050610ad681610ab2565b92915050565b5f60208284031215610af157610af0610aa1565b5b5f610afe84828501610ac8565b91505092915050565b610b1081610aa9565b82525050565b5f8115159050919050565b610b2a81610b16565b82525050565b5f606082019050610b435f830186610b07565b610b506020830185610b21565b610b5d6040830184610b07565b949350505050565b5f73ffffffffffffffffffffffffffffffffffffffff82169050919050565b5f610b8e82610b65565b9050919050565b610b9e81610b84565b8114610ba8575f80fd5b50565b5f81359050610bb981610b95565b92915050565b5f60208284031215610bd457610bd3610aa1565b5b5f610be184828501610bab565b91505092915050565b5f80fd5b5f80fd5b5f601f19601f8301169050919050565b7f4e487b71000000000000000000000000000000000000000000000000000000005f52604160045260245ffd5b610c3882610bf2565b810181811067ffffffffffffffff82111715610c5757610c56610c02565b5b80604052505050565b5f610c69610a98565b9050610c758282610c2f565b919050565b5f67ffffffffffffffff821115610c9457610c93610c02565b5b610c9d82610bf2565b9050602081019050919050565b828183375f83830152505050565b5f610cca610cc584610c7a565b610c60565b905082815260208101848484011115610ce657610ce5610bee565b5b610cf1848285610caa565b509392505050565b5f82601f830112610d0d57610d0c610bea565b5b8135610d1d848260208601610cb8565b91505092915050565b5f805f8060808587031215610d3e57610d3d610aa1565b5b5f85013567ffffffffffffffff811115610d5b57610d5a610aa5565b5b610d6787828801610cf9565b945050602085013567ffffffffffffffff811115610d8857610d87610aa5565b5b610d9487828801610cf9565b935050604085013567ffffffffffffffff811115610db557610db4610aa5565b5b610dc187828801610cf9565b925050606085013567ffffffffffffffff811115610de257610de1610aa5565b5b610dee87828801610cf9565b91505092959194509250565b5f8060408385031215610e1057610e0f610aa1565b5b5f610e1d85828601610ac8565b9250506020610e2e85828601610ac8565b9150509250929050565b5f60208284031215610e4d57610e4c610aa1565b5b5f82013567ffffffffffffffff811115610e6a57610e69610aa5565b5b610e7684828501610cf9565b91505092915050565b5f81519050919050565b5f82825260208201905092915050565b8281835e5f83830152505050565b5f610eb182610e7f565b610ebb8185610e89565b9350610ecb818560208601610e99565b610ed481610bf2565b840191505092915050565b5f6060820190508181035f830152610ef78186610ea7565b90508181036020830152610f0b8185610ea7565b90508181036040830152610f1f8184610ea7565b9050949350505050565b610f3281610b84565b82525050565b5f606082019050610f4b5f830186610f29565b610f586020830185610b21565b610f656040830184610b07565b949350505050565b5f6080820190508181035f830152610f858187610ea7565b90508181036020830152610f998186610ea7565b90508181036040830152610fad8185610ea7565b90508181036060830152610fc18184610ea7565b905095945050505050565b5f8160601b9050919050565b5f610fe282610fcc565b9050919050565b5f610ff382610fd8565b9050919050565b61100b61100682610b84565b610fe9565b82525050565b5f61101c8284610ffa565b60148201915081905092915050565b7f566f74657220697320616c726561647920726567697374657265642e000000005f82015250565b5f61105f601c83610e89565b915061106a8261102b565b602082019050919050565b5f6020820190508181035f83015261108c81611053565b9050919050565b5f6020820190506110a65f830184610b07565b92915050565b5f81905092915050565b5f6110c082610e7f565b6110ca81856110ac565b93506110da818560208601610e99565b80840191505092915050565b5f6110f182846110b6565b915081905092915050565b7f4e487b71000000000000000000000000000000000000000000000000000000005f52602260045260245ffd5b5f600282049050600182168061114057607f821691505b602082108103611153576111526110fc565b5b50919050565b5f819050815f5260205f209050919050565b5f6020601f8301049050919050565b5f82821b905092915050565b5f600883026111b57fffffffffffffffffffffffffffffffffffffffffffffffffffffffffffffffff8261117a565b6111bf868361117a565b95508019841693508086168417925050509392505050565b5f819050919050565b5f819050919050565b5f6112036111fe6111f9846111d7565b6111e0565b6111d7565b9050919050565b5f819050919050565b61121c836111e9565b6112306112288261120a565b848454611186565b825550505050565b5f90565b611244611238565b61124f818484611213565b505050565b5b81811015611272576112675f8261123c565b600181019050611255565b5050565b601f8211156112b75761128881611159565b6112918461116b565b810160208510156112a0578190505b6112b46112ac8561116b565b830182611254565b50505b505050565b5f82821c905092915050565b5f6112d75f19846008026112bc565b1980831691505092915050565b5f6112ef83836112c8565b9150826002028217905092915050565b61130882610e7f565b67ffffffffffffffff81111561132157611320610c02565b5b61132b8254611129565b611336828285611276565b5f60209050601f831160018114611367575f8415611355578287015190505b61135f85826112e4565b8655506113c6565b601f19841661137586611159565b5f5b8281101561139c57848901518255600182019150602085019450602081019050611377565b868310156113b957848901516113b5601f8916826112c8565b8355505b6001600288020188555050505b505050505050565b7f566f746572206973206e6f7420726567697374657265642e00000000000000005f82015250565b5f611402601883610e89565b915061140d826113ce565b602082019050919050565b5f6020820190508181035f83015261142f816113f6565b9050919050565b7f566f7465722068617320616c726561647920766f7465642e00000000000000005f82015250565b5f61146a601883610e89565b915061147582611436565b602082019050919050565b5f6020820190508181035f8301526114978161145e565b9050919050565b5f6040820190506114b15f830185610b07565b6114be6020830184610b07565b939250505056fea26469706673582212207ecfd5ba9119bc4413dad0cf6adfb06b1217972adc90cb55c7790b85ba47fa0764736f6c634300081a0033",
  "deployedBytecode": "0x",
  "linkReferences": {},
  "deployedLinkReferences": {}
}