{
  "_format": "hh-sol-artifact-1",
  "contractName": "Voting",
  "sourceName": "contracts/Voting.sol",
  "abi": [
    {
      "anonymous": false,
      "inputs": [
        {
          "indexed": false,
          "internalType": "string",
          "name": "candidateId",
          "type": "string"
        },
        {
          "indexed": false,
          "internalType": "uint256",
          "name": "voteCount",
          "type": "uint256"
        }
      ],
      "name": "ResultsAnnounced",
      "type": "event"
    },
    {
      "anonymous": false,
      "inputs": [
        {
          "indexed": false,
          "internalType": "bytes32",
          "name": "voterId",
          "type": "bytes32"
        },
        {
          "indexed": false,
          "internalType": "bytes32",
          "name": "vote",
          "type": "bytes32"
        }
      ],
      "name": "VoteCast",
      "type": "event"
    },
    {
      "anonymous": false,
      "inputs": [
        {
          "indexed": false,
          "internalType": "bytes32",
          "name": "voterId",
          "type": "bytes32"
        }
      ],
      "name": "VoterRegistered",
      "type": "event"
    },
    {
      "inputs": [
        {
          "internalType": "string",
          "name": "_candidateId",
          "type": "string"
        },
        {
          "internalType": "string",
          "name": "_name",
          "type": "string"
        },
        {
          "internalType": "string",
          "name": "_description",
          "type": "string"
        },
        {
          "internalType": "string",
          "name": "_imageUrl",
          "type": "string"
        }
      ],
      "name": "addCandidate",
      "outputs": [],
      "stateMutability": "nonpayable",
      "type": "function"
    },
    {
      "inputs": [
        {
          "internalType": "uint256",
          "name": "",
          "type": "uint256"
        }
      ],
      "name": "candidateIds",
      "outputs": [
        {
          "internalType": "string",
          "name": "",
          "type": "string"
        }
      ],
      "stateMutability": "view",
      "type": "function"
    },
    {
      "inputs": [
        {
          "internalType": "string",
          "name": "",
          "type": "string"
        }
      ],
      "name": "candidateVotes",
      "outputs": [
        {
          "internalType": "uint256",
          "name": "",
          "type": "uint256"
        }
      ],
      "stateMutability": "view",
      "type": "function"
    },
    {
      "inputs": [
        {
          "internalType": "string",
          "name": "",
          "type": "string"
        }
      ],
      "name": "candidates",
      "outputs": [
        {
          "internalType": "string",
          "name": "candidateId",
          "type": "string"
        },
        {
          "internalType": "string",
          "name": "name",
          "type": "string"
        },
        {
          "internalType": "string",
          "name": "description",
          "type": "string"
        },
        {
          "internalType": "string",
          "name": "imageUrl",
          "type": "string"
        }
      ],
      "stateMutability": "view",
      "type": "function"
    },
    {
      "inputs": [
        {
          "internalType": "bytes32",
          "name": "voterId",
          "type": "bytes32"
        },
        {
          "internalType": "bytes32",
          "name": "encryptedVote",
          "type": "bytes32"
        }
      ],
      "name": "castVote",
      "outputs": [],
      "stateMutability": "nonpayable",
      "type": "function"
    },
    {
      "inputs": [
        {
          "internalType": "string",
          "name": "candidateId",
          "type": "string"
        }
      ],
      "name": "getCandidateInfo",
      "outputs": [
        {
          "internalType": "string",
          "name": "",
          "type": "string"
        },
        {
          "internalType": "string",
          "name": "",
          "type": "string"
        },
        {
          "internalType": "string",
          "name": "",
          "type": "string"
        }
      ],
      "stateMutability": "view",
      "type": "function"
    },
    {
      "inputs": [
        {
          "internalType": "address",
          "name": "_voterAddress",
          "type": "address"
        }
      ],
      "name": "registerVoter",
      "outputs": [],
      "stateMutability": "nonpayable",
      "type": "function"
    },
    {
      "inputs": [],
      "name": "tallyVotes",
      "outputs": [],
      "stateMutability": "nonpayable",
      "type": "function"
    },
    {
      "inputs": [
        {
          "internalType": "bytes32",
          "name": "",
          "type": "bytes32"
        }
      ],
      "name": "voters",
      "outputs": [
        {
          "internalType": "bytes32",
          "name": "voterId",
          "type": "bytes32"
        },
        {
          "internalType": "bool",
          "name": "hasVoted",
          "type": "bool"
        },
        {
          "internalType": "bytes32",
          "name": "vote",
          "type": "bytes32"
        }
      ],
      "stateMutability": "view",
      "type": "function"
    }
  ],
  "bytecode": "0x6080604052348015600e575f80fd5b5061196d8061001c5f395ff3fe608060405234801561000f575f80fd5b5060043610610090575f3560e01c806338db6dd31161006457806338db6dd31461013057806342b03cc91461014c5780636721d18d14610168578063b61add9a14610184578063c5539cc2146101b657610090565b8062514d7a1461009457806303016130146100c4578063378a2178146100f457806337f91f23146100fe575b5f80fd5b6100ae60048036038101906100a99190610f0f565b6101e9565b6040516100bb9190610f6e565b60405180910390f35b6100de60048036038101906100d99190610fb1565b610216565b6040516100eb919061103c565b60405180910390f35b6100fc6102bc565b005b6101186004803603810190610113919061108f565b6103d9565b604051610127939291906110e3565b60405180910390f35b61014a60048036038101906101459190611172565b61040a565b005b6101666004803603810190610161919061119d565b610528565b005b610182600480360381019061017d9190611271565b61061b565b005b61019e60048036038101906101999190610f0f565b610793565b6040516101ad939291906112af565b60405180910390f35b6101d060048036038101906101cb9190610f0f565b610a20565b6040516101e094939291906112f9565b60405180910390f35b6002818051602081018201805184825260208301602085012081835280955050505050505f915090505481565b60038181548110610225575f80fd5b905f5260205f20015f91509050805461023d90611385565b80601f016020809104026020016040519081016040528092919081815260200182805461026990611385565b80156102b45780601f1061028b576101008083540402835291602001916102b4565b820191905f5260205f20905b81548152906001019060200180831161029757829003601f168201915b505050505081565b5f5b6003805490508110156103d6575f600382815481106102e0576102df6113b5565b5b905f5260205f200180546102f390611385565b80601f016020809104026020016040519081016040528092919081815260200182805461031f90611385565b801561036a5780601f106103415761010080835404028352916020019161036a565b820191905f5260205f20905b81548152906001019060200180831161034d57829003601f168201915b505050505090507fc4a58db5ca2d4080ba095a658eb26b3a4344ced39cc2ec6c0426818a8b4afff4816002836040516103a3919061141c565b9081526020016040518091039020546040516103c0929190611432565b60405180910390a15080806001019150506102be565b50565b5f602052805f5260405f205f91509050805f015490806001015f9054906101000a900460ff16908060020154905083565b5f8160405160200161041c91906114a5565b6040516020818303038152906040528051906020012090505f801b5f808381526020019081526020015f205f01541461048a576040517f08c379a000000000000000000000000000000000000000000000000000000000815260040161048190611509565b60405180910390fd5b60405180606001604052808281526020015f151581526020015f801b8152505f808381526020019081526020015f205f820151815f01556020820151816001015f6101000a81548160ff021916908315150217905550604082015181600201559050507fe1e93aab4d6cae623ae197f9c4d63ac5eede4c69f9d0fbc92e4dbb0766abd1158160405161051c9190611527565b60405180910390a15050565b604051806080016040528085815260200184815260200183815260200182815250600185604051610559919061141c565b90815260200160405180910390205f820151815f01908161057a91906116dd565b50602082015181600101908161059091906116dd565b5060408201518160020190816105a691906116dd565b5060608201518160030190816105bc91906116dd565b50905050600384908060018154018082558091505060019003905f5260205f20015f9091909190915090816105f191906116dd565b505f600285604051610603919061141c565b90815260200160405180910390208190555050505050565b5f801b5f808481526020019081526020015f205f015403610671576040517f08c379a0000000000000000000000000000000000000000000000000000000008152600401610668906117f6565b60405180910390fd5b5f808381526020019081526020015f206001015f9054906101000a900460ff16156106d1576040517f08c379a00000000000000000000000000000000000000000000000000000000081526004016106c89061185e565b60405180910390fd5b805f808481526020019081526020015f206002018190555060015f808481526020019081526020015f206001015f6101000a81548160ff0219169083151502179055505f61071e82610c7c565b90506001600282604051610732919061141c565b90815260200160405180910390205f82825461074e91906118a9565b925050819055507f98feb77d0a18cb15f50d444eb78ea1c0e7461c4c7c44c9df2a863f4af4ade56a83836040516107869291906118dc565b60405180910390a1505050565b60608060605f6001856040516107a9919061141c565b90815260200160405180910390206040518060800160405290815f820180546107d190611385565b80601f01602080910402602001604051908101604052809291908181526020018280546107fd90611385565b80156108485780601f1061081f57610100808354040283529160200191610848565b820191905f5260205f20905b81548152906001019060200180831161082b57829003601f168201915b5050505050815260200160018201805461086190611385565b80601f016020809104026020016040519081016040528092919081815260200182805461088d90611385565b80156108d85780601f106108af576101008083540402835291602001916108d8565b820191905f5260205f20905b8154815290600101906020018083116108bb57829003601f168201915b505050505081526020016002820180546108f190611385565b80601f016020809104026020016040519081016040528092919081815260200182805461091d90611385565b80156109685780601f1061093f57610100808354040283529160200191610968565b820191905f5260205f20905b81548152906001019060200180831161094b57829003601f168201915b5050505050815260200160038201805461098190611385565b80601f01602080910402602001604051908101604052809291908181526020018280546109ad90611385565b80156109f85780601f106109cf576101008083540402835291602001916109f8565b820191905f5260205f20905b8154815290600101906020018083116109db57829003601f168201915b5050505050815250509050806020015181604001518260600151935093509350509193909250565b6001818051602081018201805184825260208301602085012081835280955050505050505f91509050805f018054610a5790611385565b80601f0160208091040260200160405190810160405280929190818152602001828054610a8390611385565b8015610ace5780601f10610aa557610100808354040283529160200191610ace565b820191905f5260205f20905b815481529060010190602001808311610ab157829003601f168201915b505050505090806001018054610ae390611385565b80601f0160208091040260200160405190810160405280929190818152602001828054610b0f90611385565b8015610b5a5780601f10610b3157610100808354040283529160200191610b5a565b820191905f5260205f20905b815481529060010190602001808311610b3d57829003601f168201915b505050505090806002018054610b6f90611385565b80601f0160208091040260200160405190810160405280929190818152602001828054610b9b90611385565b8015610be65780601f10610bbd57610100808354040283529160200191610be6565b820191905f5260205f20905b815481529060010190602001808311610bc957829003601f168201915b505050505090806003018054610bfb90611385565b80601f0160208091040260200160405190810160405280929190818152602001828054610c2790611385565b8015610c725780601f10610c4957610100808354040283529160200191610c72565b820191905f5260205f20905b815481529060010190602001808311610c5557829003601f168201915b5050505050905084565b60605f5b60208160ff16108015610cd157505f60f81b838260ff1660208110610ca857610ca76113b5565b5b1a60f81b7effffffffffffffffffffffffffffffffffffffffffffffffffffffffffffff191614155b15610ce9578080610ce19061190f565b915050610c80565b5f8160ff1667ffffffffffffffff811115610d0757610d06610deb565b5b6040519080825280601f01601f191660200182016040528015610d395781602001600182028036833780820191505090505b5090505f5b8260ff168160ff161015610db757848160ff1660208110610d6257610d616113b5565b5b1a60f81b828260ff1681518110610d7c57610d7b6113b5565b5b60200101907effffffffffffffffffffffffffffffffffffffffffffffffffffffffffffff191690815f1a9053508080600101915050610d3e565b508092505050919050565b5f604051905090565b5f80fd5b5f80fd5b5f80fd5b5f80fd5b5f601f19601f8301169050919050565b7f4e487b71000000000000000000000000000000000000000000000000000000005f52604160045260245ffd5b610e2182610ddb565b810181811067ffffffffffffffff82111715610e4057610e3f610deb565b5b80604052505050565b5f610e52610dc2565b9050610e5e8282610e18565b919050565b5f67ffffffffffffffff821115610e7d57610e7c610deb565b5b610e8682610ddb565b9050602081019050919050565b828183375f83830152505050565b5f610eb3610eae84610e63565b610e49565b905082815260208101848484011115610ecf57610ece610dd7565b5b610eda848285610e93565b509392505050565b5f82601f830112610ef657610ef5610dd3565b5b8135610f06848260208601610ea1565b91505092915050565b5f60208284031215610f2457610f23610dcb565b5b5f82013567ffffffffffffffff811115610f4157610f40610dcf565b5b610f4d84828501610ee2565b91505092915050565b5f819050919050565b610f6881610f56565b82525050565b5f602082019050610f815f830184610f5f565b92915050565b610f9081610f56565b8114610f9a575f80fd5b50565b5f81359050610fab81610f87565b92915050565b5f60208284031215610fc657610fc5610dcb565b5b5f610fd384828501610f9d565b91505092915050565b5f81519050919050565b5f82825260208201905092915050565b8281835e5f83830152505050565b5f61100e82610fdc565b6110188185610fe6565b9350611028818560208601610ff6565b61103181610ddb565b840191505092915050565b5f6020820190508181035f8301526110548184611004565b905092915050565b5f819050919050565b61106e8161105c565b8114611078575f80fd5b50565b5f8135905061108981611065565b92915050565b5f602082840312156110a4576110a3610dcb565b5b5f6110b18482850161107b565b91505092915050565b6110c38161105c565b82525050565b5f8115159050919050565b6110dd816110c9565b82525050565b5f6060820190506110f65f8301866110ba565b61110360208301856110d4565b61111060408301846110ba565b949350505050565b5f73ffffffffffffffffffffffffffffffffffffffff82169050919050565b5f61114182611118565b9050919050565b61115181611137565b811461115b575f80fd5b50565b5f8135905061116c81611148565b92915050565b5f6020828403121561118757611186610dcb565b5b5f6111948482850161115e565b91505092915050565b5f805f80608085870312156111b5576111b4610dcb565b5b5f85013567ffffffffffffffff8111156111d2576111d1610dcf565b5b6111de87828801610ee2565b945050602085013567ffffffffffffffff8111156111ff576111fe610dcf565b5b61120b87828801610ee2565b935050604085013567ffffffffffffffff81111561122c5761122b610dcf565b5b61123887828801610ee2565b925050606085013567ffffffffffffffff81111561125957611258610dcf565b5b61126587828801610ee2565b91505092959194509250565b5f806040838503121561128757611286610dcb565b5b5f6112948582860161107b565b92505060206112a58582860161107b565b9150509250929050565b5f6060820190508181035f8301526112c78186611004565b905081810360208301526112db8185611004565b905081810360408301526112ef8184611004565b9050949350505050565b5f6080820190508181035f8301526113118187611004565b905081810360208301526113258186611004565b905081810360408301526113398185611004565b9050818103606083015261134d8184611004565b905095945050505050565b7f4e487b71000000000000000000000000000000000000000000000000000000005f52602260045260245ffd5b5f600282049050600182168061139c57607f821691505b6020821081036113af576113ae611358565b5b50919050565b7f4e487b71000000000000000000000000000000000000000000000000000000005f52603260045260245ffd5b5f81905092915050565b5f6113f682610fdc565b61140081856113e2565b9350611410818560208601610ff6565b80840191505092915050565b5f61142782846113ec565b915081905092915050565b5f6040820190508181035f83015261144a8185611004565b90506114596020830184610f5f565b9392505050565b5f8160601b9050919050565b5f61147682611460565b9050919050565b5f6114878261146c565b9050919050565b61149f61149a82611137565b61147d565b82525050565b5f6114b0828461148e565b60148201915081905092915050565b7f566f74657220697320616c726561647920726567697374657265642e000000005f82015250565b5f6114f3601c83610fe6565b91506114fe826114bf565b602082019050919050565b5f6020820190508181035f830152611520816114e7565b9050919050565b5f60208201905061153a5f8301846110ba565b92915050565b5f819050815f5260205f209050919050565b5f6020601f8301049050919050565b5f82821b905092915050565b5f6008830261159c7fffffffffffffffffffffffffffffffffffffffffffffffffffffffffffffffff82611561565b6115a68683611561565b95508019841693508086168417925050509392505050565b5f819050919050565b5f6115e16115dc6115d784610f56565b6115be565b610f56565b9050919050565b5f819050919050565b6115fa836115c7565b61160e611606826115e8565b84845461156d565b825550505050565b5f90565b611622611616565b61162d8184846115f1565b505050565b5b81811015611650576116455f8261161a565b600181019050611633565b5050565b601f8211156116955761166681611540565b61166f84611552565b8101602085101561167e578190505b61169261168a85611552565b830182611632565b50505b505050565b5f82821c905092915050565b5f6116b55f198460080261169a565b1980831691505092915050565b5f6116cd83836116a6565b9150826002028217905092915050565b6116e682610fdc565b67ffffffffffffffff8111156116ff576116fe610deb565b5b6117098254611385565b611714828285611654565b5f60209050601f831160018114611745575f8415611733578287015190505b61173d85826116c2565b8655506117a4565b601f19841661175386611540565b5f5b8281101561177a57848901518255600182019150602085019450602081019050611755565b868310156117975784890151611793601f8916826116a6565b8355505b6001600288020188555050505b505050505050565b7f566f746572206973206e6f7420726567697374657265642e00000000000000005f82015250565b5f6117e0601883610fe6565b91506117eb826117ac565b602082019050919050565b5f6020820190508181035f83015261180d816117d4565b9050919050565b7f566f7465722068617320616c726561647920766f7465642e00000000000000005f82015250565b5f611848601883610fe6565b915061185382611814565b602082019050919050565b5f6020820190508181035f8301526118758161183c565b9050919050565b7f4e487b71000000000000000000000000000000000000000000000000000000005f52601160045260245ffd5b5f6118b382610f56565b91506118be83610f56565b92508282019050808211156118d6576118d561187c565b5b92915050565b5f6040820190506118ef5f8301856110ba565b6118fc60208301846110ba565b9392505050565b5f60ff82169050919050565b5f61191982611903565b915060ff820361192c5761192b61187c565b5b60018201905091905056fea264697066735822122060b1658f3313650111c8bb06ead0d0c42bb0ed6a71767992372293369399d6b864736f6c634300081a0033",
  "deployedBytecode": "0x608060405234801561001057600080fd5b506004361061007d5760003560e01c806342b03cc91161005b57806342b03cc9146100da5780636721d18d146100f6578063b61add9a14610112578063c5539cc2146101445761007d565b8063378a21781461008257806337f91f231461008c57806338db6dd3146100be575b600080fd5b61008a610177565b005b6100a660048036038101906100a19190610b34565b610179565b6040516100b593929190610e49565b60405180910390f35b6100d860048036038101906100d39190610b0b565b6101b0565b005b6100f460048036038101906100ef9190610bda565b6102da565b005b610110600480360381019061010b9190610b5d565b610396565b005b61012c60048036038101906101279190610b99565b6104d9565b60405161013b93929190610ea9565b60405180910390f35b61015e60048036038101906101599190610b99565b610770565b60405161016e9493929190610ef5565b60405180910390f35b565b60006020528060005260406000206000915090508060000154908060010160009054906101000a900460ff16908060020154905083565b6000816040516020016101c39190610dfc565b6040516020818303038152906040528051906020012090506000801b6000808381526020019081526020016000206000015414610235576040517f08c379a000000000000000000000000000000000000000000000000000000000815260040161022c90610f96565b60405180910390fd5b60405180606001604052808281526020016000151581526020016000801b8152506000808381526020019081526020016000206000820151816000015560208201518160010160006101000a81548160ff021916908315150217905550604082015181600201559050507fe1e93aab4d6cae623ae197f9c4d63ac5eede4c69f9d0fbc92e4dbb0766abd115816040516102ce9190610e2e565b60405180910390a15050565b60405180608001604052808581526020018481526020018381526020018281525060018560405161030b9190610e17565b908152602001604051809103902060008201518160000190805190602001906103359291906109d6565b5060208201518160010190805190602001906103529291906109d6565b50604082015181600201908051906020019061036f9291906109d6565b50606082015181600301908051906020019061038c9291906109d6565b5090505050505050565b6000801b6000808481526020019081526020016000206000015414156103f1576040517f08c379a00000000000000000000000000000000000000000000000000000000081526004016103e890610f56565b60405180910390fd5b60008083815260200190815260200160002060010160009054906101000a900460ff1615610454576040517f08c379a000000000000000000000000000000000000000000000000000000000815260040161044b90610f76565b60405180910390fd5b8060008084815260200190815260200160002060020181905550600160008084815260200190815260200160002060010160006101000a81548160ff0219169083151502179055507f98feb77d0a18cb15f50d444eb78ea1c0e7461c4c7c44c9df2a863f4af4ade56a82826040516104cd929190610e80565b60405180910390a15050565b606080606060006001856040516104f09190610e17565b9081526020016040518091039020604051806080016040529081600082018054610519906110c8565b80601f0160208091040260200160405190810160405280929190818152602001828054610545906110c8565b80156105925780601f1061056757610100808354040283529160200191610592565b820191906000526020600020905b81548152906001019060200180831161057557829003601f168201915b505050505081526020016001820180546105ab906110c8565b80601f01602080910402602001604051908101604052809291908181526020018280546105d7906110c8565b80156106245780601f106105f957610100808354040283529160200191610624565b820191906000526020600020905b81548152906001019060200180831161060757829003601f168201915b5050505050815260200160028201805461063d906110c8565b80601f0160208091040260200160405190810160405280929190818152602001828054610669906110c8565b80156106b65780601f1061068b576101008083540402835291602001916106b6565b820191906000526020600020905b81548152906001019060200180831161069957829003601f168201915b505050505081526020016003820180546106cf906110c8565b80601f01602080910402602001604051908101604052809291908181526020018280546106fb906110c8565b80156107485780601f1061071d57610100808354040283529160200191610748565b820191906000526020600020905b81548152906001019060200180831161072b57829003601f168201915b5050505050815250509050806020015181604001518260600151935093509350509193909250565b6001818051602081018201805184825260208301602085012081835280955050505050506000915090508060000180546107a9906110c8565b80601f01602080910402602001604051908101604052809291908181526020018280546107d5906110c8565b80156108225780601f106107f757610100808354040283529160200191610822565b820191906000526020600020905b81548152906001019060200180831161080557829003601f168201915b505050505090806001018054610837906110c8565b80601f0160208091040260200160405190810160405280929190818152602001828054610863906110c8565b80156108b05780601f10610885576101008083540402835291602001916108b0565b820191906000526020600020905b81548152906001019060200180831161089357829003601f168201915b5050505050908060020180546108c5906110c8565b80601f01602080910402602001604051908101604052809291908181526020018280546108f1906110c8565b801561093e5780601f106109135761010080835404028352916020019161093e565b820191906000526020600020905b81548152906001019060200180831161092157829003601f168201915b505050505090806003018054610953906110c8565b80601f016020809104026020016040519081016040528092919081815260200182805461097f906110c8565b80156109cc5780601f106109a1576101008083540402835291602001916109cc565b820191906000526020600020905b8154815290600101906020018083116109af57829003601f168201915b5050505050905084565b8280546109e2906110c8565b90600052602060002090601f016020900481019282610a045760008555610a4b565b82601f10610a1d57805160ff1916838001178555610a4b565b82800160010185558215610a4b579182015b82811115610a4a578251825591602001919060010190610a2f565b5b509050610a589190610a5c565b5090565b5b80821115610a75576000816000905550600101610a5d565b5090565b6000610a8c610a8784610fe7565b610fb6565b905082815260208101848484011115610aa457600080fd5b610aaf848285611086565b509392505050565b600081359050610ac68161119a565b92915050565b600081359050610adb816111b1565b92915050565b600082601f830112610af257600080fd5b8135610b02848260208601610a79565b91505092915050565b600060208284031215610b1d57600080fd5b6000610b2b84828501610ab7565b91505092915050565b600060208284031215610b4657600080fd5b6000610b5484828501610acc565b91505092915050565b60008060408385031215610b7057600080fd5b6000610b7e85828601610acc565b9250506020610b8f85828601610acc565b9150509250929050565b600060208284031215610bab57600080fd5b600082013567ffffffffffffffff811115610bc557600080fd5b610bd184828501610ae1565b91505092915050565b60008060008060808587031215610bf057600080fd5b600085013567ffffffffffffffff811115610c0a57600080fd5b610c1687828801610ae1565b945050602085013567ffffffffffffffff811115610c3357600080fd5b610c3f87828801610ae1565b935050604085013567ffffffffffffffff811115610c5c57600080fd5b610c6887828801610ae1565b925050606085013567ffffffffffffffff811115610c8557600080fd5b610c9187828801610ae1565b91505092959194509250565b610cae610ca98261103e565b6110fa565b82525050565b610cbd81611050565b82525050565b610ccc8161105c565b82525050565b6000610cdd82611017565b610ce78185611022565b9350610cf7818560208601611095565b610d008161117c565b840191505092915050565b6000610d1682611017565b610d208185611033565b9350610d30818560208601611095565b80840191505092915050565b6000610d49601883611022565b91507f566f746572206973206e6f7420726567697374657265642e00000000000000006000830152602082019050919050565b6000610d89601883611022565b91507f566f7465722068617320616c726561647920766f7465642e00000000000000006000830152602082019050919050565b6000610dc9601c83611022565b91507f566f74657220697320616c726561647920726567697374657265642e000000006000830152602082019050919050565b6000610e088284610c9d565b60148201915081905092915050565b6000610e238284610d0b565b915081905092915050565b6000602082019050610e436000830184610cc3565b92915050565b6000606082019050610e5e6000830186610cc3565b610e6b6020830185610cb4565b610e786040830184610cc3565b949350505050565b6000604082019050610e956000830185610cc3565b610ea26020830184610cc3565b9392505050565b60006060820190508181036000830152610ec38186610cd2565b90508181036020830152610ed78185610cd2565b90508181036040830152610eeb8184610cd2565b9050949350505050565b60006080820190508181036000830152610f0f8187610cd2565b90508181036020830152610f238186610cd2565b90508181036040830152610f378185610cd2565b90508181036060830152610f4b8184610cd2565b905095945050505050565b60006020820190508181036000830152610f6f81610d3c565b9050919050565b60006020820190508181036000830152610f8f81610d7c565b9050919050565b60006020820190508181036000830152610faf81610dbc565b9050919050565b6000604051905081810181811067ffffffffffffffff82111715610fdd57610fdc61114d565b5b8060405250919050565b600067ffffffffffffffff8211156110025761100161114d565b5b601f19601f8301169050602081019050919050565b600081519050919050565b600082825260208201905092915050565b600081905092915050565b600061104982611066565b9050919050565b60008115159050919050565b6000819050919050565b600073ffffffffffffffffffffffffffffffffffffffff82169050919050565b82818337600083830152505050565b60005b838110156110b3578082015181840152602081019050611098565b838111156110c2576000848401525b50505050565b600060028204905060018216806110e057607f821691505b602082108114156110f4576110f361111e565b5b50919050565b60006111058261110c565b9050919050565b60006111178261118d565b9050919050565b7f4e487b7100000000000000000000000000000000000000000000000000000000600052602260045260246000fd5b7f4e487b7100000000000000000000000000000000000000000000000000000000600052604160045260246000fd5b6000601f19601f8301169050919050565b60008160601b9050919050565b6111a38161103e565b81146111ae57600080fd5b50565b6111ba8161105c565b81146111c557600080fd5b5056fea26469706673582212209ade9cee556d12f35336a6add5b45f208032f458cb36f0c378cb28ec0e1af9ce64736f6c63430008000033",
  "linkReferences": {},
  "deployedLinkReferences": {}
}