{
  "contractName": "Voting",
  "abi": [
    {
      "inputs": [
        {
          "internalType": "string[]",
          "name": "candidateNames",
          "type": "string[]"
        }
      ],
      "stateMutability": "nonpayable",
      "type": "constructor"
    },
    {
      "anonymous": false,
      "inputs": [],
      "name": "VoteEnded",
      "type": "event"
    },
    {
      "anonymous": false,
      "inputs": [],
      "name": "VoteStarted",
      "type": "event"
    },
    {
      "anonymous": false,
      "inputs": [
        {
          "indexed": false,
          "internalType": "address",
          "name": "voter",
          "type": "address"
        },
        {
          "indexed": false,
          "internalType": "uint256",
          "name": "candidateId",
          "type": "uint256"
        }
      ],
      "name": "Voted",
      "type": "event"
    },
    {
      "anonymous": false,
      "inputs": [
        {
          "indexed": false,
          "internalType": "address",
          "name": "voter",
          "type": "address"
        }
      ],
      "name": "VoterRegistered",
      "type": "event"
    },
    {
      "inputs": [],
      "name": "admin",
      "outputs": [
        {
          "internalType": "address",
          "name": "",
          "type": "address"
        }
      ],
      "stateMutability": "view",
      "type": "function",
      "constant": true
    },
    {
      "inputs": [
        {
          "internalType": "uint256",
          "name": "",
          "type": "uint256"
        }
      ],
      "name": "candidates",
      "outputs": [
        {
          "internalType": "uint256",
          "name": "id",
          "type": "uint256"
        },
        {
          "internalType": "string",
          "name": "name",
          "type": "string"
        },
        {
          "internalType": "uint256",
          "name": "voteCount",
          "type": "uint256"
        }
      ],
      "stateMutability": "view",
      "type": "function",
      "constant": true
    },
    {
      "inputs": [
        {
          "internalType": "address",
          "name": "",
          "type": "address"
        }
      ],
      "name": "voters",
      "outputs": [
        {
          "internalType": "bool",
          "name": "isRegistered",
          "type": "bool"
        },
        {
          "internalType": "bool",
          "name": "hasVoted",
          "type": "bool"
        },
        {
          "internalType": "uint256",
          "name": "vote",
          "type": "uint256"
        }
      ],
      "stateMutability": "view",
      "type": "function",
      "constant": true
    },
    {
      "inputs": [],
      "name": "votingEnded",
      "outputs": [
        {
          "internalType": "bool",
          "name": "",
          "type": "bool"
        }
      ],
      "stateMutability": "view",
      "type": "function",
      "constant": true
    },
    {
      "inputs": [],
      "name": "votingStarted",
      "outputs": [
        {
          "internalType": "bool",
          "name": "",
          "type": "bool"
        }
      ],
      "stateMutability": "view",
      "type": "function",
      "constant": true
    },
    {
      "inputs": [
        {
          "internalType": "address",
          "name": "voterAddress",
          "type": "address"
        }
      ],
      "name": "registerVoter",
      "outputs": [],
      "stateMutability": "nonpayable",
      "type": "function"
    },
    {
      "inputs": [],
      "name": "startVote",
      "outputs": [],
      "stateMutability": "nonpayable",
      "type": "function"
    },
    {
      "inputs": [],
      "name": "endVote",
      "outputs": [],
      "stateMutability": "nonpayable",
      "type": "function"
    },
    {
      "inputs": [
        {
          "internalType": "uint256",
          "name": "candidateId",
          "type": "uint256"
        }
      ],
      "name": "vote",
      "outputs": [],
      "stateMutability": "nonpayable",
      "type": "function"
    },
    {
      "inputs": [],
      "name": "getResults",
      "outputs": [
        {
          "components": [
            {
              "internalType": "uint256",
              "name": "id",
              "type": "uint256"
            },
            {
              "internalType": "string",
              "name": "name",
              "type": "string"
            },
            {
              "internalType": "uint256",
              "name": "voteCount",
              "type": "uint256"
            }
          ],
          "internalType": "struct Voting.Candidate[]",
          "name": "",
          "type": "tuple[]"
        }
      ],
      "stateMutability": "view",
      "type": "function",
      "constant": true
    }
  ],
  "bytecode": "0x60806040523480156200001157600080fd5b5060405162001a8a38038062001a8a833981810160405281019062000037919062000313565b336000806101000a81548173ffffffffffffffffffffffffffffffffffffffff021916908373ffffffffffffffffffffffffffffffffffffffff16021790555060005b8151811015620001575760026040518060600160405280838152602001848481518110620000d1577f4e487b7100000000000000000000000000000000000000000000000000000000600052603260045260246000fd5b6020026020010151815260200160008152509080600181540180825580915050600190039060005260206000209060030201600090919091909150600082015181600001556020820151816001019080519060200190620001349291906200015f565b5060408201518160020155505080806200014e9062000464565b9150506200007a565b50506200053f565b8280546200016d906200042e565b90600052602060002090601f016020900481019282620001915760008555620001dd565b82601f10620001ac57805160ff1916838001178555620001dd565b82800160010185558215620001dd579182015b82811115620001dc578251825591602001919060010190620001bf565b5b509050620001ec9190620001f0565b5090565b5b808211156200020b576000816000905550600101620001f1565b5090565b60006200022662000220846200038c565b62000358565b9050808382526020820190508260005b858110156200026a57815185016200024f8882620002e6565b84526020840193506020830192505060018101905062000236565b5050509392505050565b60006200028b6200028584620003bb565b62000358565b905082815260208101848484011115620002a457600080fd5b620002b1848285620003f8565b509392505050565b600082601f830112620002cb57600080fd5b8151620002dd8482602086016200020f565b91505092915050565b600082601f830112620002f857600080fd5b81516200030a84826020860162000274565b91505092915050565b6000602082840312156200032657600080fd5b600082015167ffffffffffffffff8111156200034157600080fd5b6200034f84828501620002b9565b91505092915050565b6000604051905081810181811067ffffffffffffffff8211171562000382576200038162000510565b5b8060405250919050565b600067ffffffffffffffff821115620003aa57620003a962000510565b5b602082029050602081019050919050565b600067ffffffffffffffff821115620003d957620003d862000510565b5b601f19601f8301169050602081019050919050565b6000819050919050565b60005b8381101562000418578082015181840152602081019050620003fb565b8381111562000428576000848401525b50505050565b600060028204905060018216806200044757607f821691505b602082108114156200045e576200045d620004e1565b5b50919050565b60006200047182620003ee565b91507fffffffffffffffffffffffffffffffffffffffffffffffffffffffffffffffff821415620004a757620004a6620004b2565b5b600182019050919050565b7f4e487b7100000000000000000000000000000000000000000000000000000000600052601160045260246000fd5b7f4e487b7100000000000000000000000000000000000000000000000000000000600052602260045260246000fd5b7f4e487b7100000000000000000000000000000000000000000000000000000000600052604160045260246000fd5b61153b806200054f6000396000f3fe608060405234801561001057600080fd5b506004361061009e5760003560e01c806383d948b71161006657806383d948b7146101355780639d5a052914610153578063a3ec138d14610171578063b9223946146101a3578063f851a440146101ad5761009e565b80630121b93f146100a35780633477ee2e146100bf57806338db6dd3146100f15780634717f97c1461010d5780634c0a6af01461012b575b600080fd5b6100bd60048036038101906100b89190610c73565b6101cb565b005b6100d960048036038101906100d49190610c73565b6104d9565b6040516100e8939291906112c1565b60405180910390f35b61010b60048036038101906101069190610c4a565b61059b565b005b6101156107a1565b604051610122919061110d565b60405180910390f35b6101336108f5565b005b61013d610a1c565b60405161014a919061112f565b60405180910390f35b61015b610a2f565b604051610168919061112f565b60405180910390f35b61018b60048036038101906101869190610c4a565b610a42565b60405161019a9392919061114a565b60405180910390f35b6101ab610a86565b005b6101b5610bfc565b6040516101c291906110c9565b60405180910390f35b600060149054906101000a900460ff1680156101f45750600060159054906101000a900460ff16155b610233576040517f08c379a000000000000000000000000000000000000000000000000000000000815260040161022a906111e1565b60405180910390fd5b600160003373ffffffffffffffffffffffffffffffffffffffff1673ffffffffffffffffffffffffffffffffffffffff16815260200190815260200160002060000160009054906101000a900460ff166102c2576040517f08c379a00000000000000000000000000000000000000000000000000000000081526004016102b9906111c1565b60405180910390fd5b600160003373ffffffffffffffffffffffffffffffffffffffff1673ffffffffffffffffffffffffffffffffffffffff16815260200190815260200160002060000160019054906101000a900460ff1615610352576040517f08c379a000000000000000000000000000000000000000000000000000000000815260040161034990611281565b60405180910390fd5b6002805490508110610399576040517f08c379a000000000000000000000000000000000000000000000000000000000815260040161039090611241565b60405180910390fd5b60018060003373ffffffffffffffffffffffffffffffffffffffff1673ffffffffffffffffffffffffffffffffffffffff16815260200190815260200160002060000160016101000a81548160ff02191690831515021790555080600160003373ffffffffffffffffffffffffffffffffffffffff1673ffffffffffffffffffffffffffffffffffffffff16815260200190815260200160002060010181905550600160028281548110610476577f4e487b7100000000000000000000000000000000000000000000000000000000600052603260045260246000fd5b906000526020600020906003020160020160008282546104969190611365565b925050819055507f4d99b957a2bc29a30ebd96a7be8e68fe50a3c701db28a91436490b7d53870ca433826040516104ce9291906110e4565b60405180910390a150565b600281815481106104e957600080fd5b906000526020600020906003020160009150905080600001549080600101805461051290611436565b80601f016020809104026020016040519081016040528092919081815260200182805461053e90611436565b801561058b5780601f106105605761010080835404028352916020019161058b565b820191906000526020600020905b81548152906001019060200180831161056e57829003601f168201915b5050505050908060020154905083565b60008054906101000a900473ffffffffffffffffffffffffffffffffffffffff1673ffffffffffffffffffffffffffffffffffffffff163373ffffffffffffffffffffffffffffffffffffffff1614610629576040517f08c379a000000000000000000000000000000000000000000000000000000000815260040161062090611261565b60405180910390fd5b600160008273ffffffffffffffffffffffffffffffffffffffff1673ffffffffffffffffffffffffffffffffffffffff16815260200190815260200160002060000160009054906101000a900460ff16156106b9576040517f08c379a00000000000000000000000000000000000000000000000000000000081526004016106b090611221565b60405180910390fd5b60405180606001604052806001151581526020016000151581526020016000815250600160008373ffffffffffffffffffffffffffffffffffffffff1673ffffffffffffffffffffffffffffffffffffffff16815260200190815260200160002060008201518160000160006101000a81548160ff02191690831515021790555060208201518160000160016101000a81548160ff021916908315150217905550604082015181600101559050507fb6be2187d059cc2a55fe29e0e503b566e1e0f8c8780096e185429350acffd3dd8160405161079691906110c9565b60405180910390a150565b6060600060159054906101000a900460ff166107f2576040517f08c379a00000000000000000000000000000000000000000000000000000000081526004016107e990611181565b60405180910390fd5b6002805480602002602001604051908101604052809291908181526020016000905b828210156108ec57838290600052602060002090600302016040518060600160405290816000820154815260200160018201805461085190611436565b80601f016020809104026020016040519081016040528092919081815260200182805461087d90611436565b80156108ca5780601f1061089f576101008083540402835291602001916108ca565b820191906000526020600020905b8154815290600101906020018083116108ad57829003601f168201915b5050505050815260200160028201548152505081526020019060010190610814565b50505050905090565b60008054906101000a900473ffffffffffffffffffffffffffffffffffffffff1673ffffffffffffffffffffffffffffffffffffffff163373ffffffffffffffffffffffffffffffffffffffff1614610983576040517f08c379a000000000000000000000000000000000000000000000000000000000815260040161097a90611261565b60405180910390fd5b600060149054906101000a900460ff16156109d3576040517f08c379a00000000000000000000000000000000000000000000000000000000081526004016109ca90611201565b60405180910390fd5b6001600060146101000a81548160ff0219169083151502179055507f1ad0a1ab13806f2b802415fa49a77ed3f633af31788e4a0645de1fc90c2a0da460405160405180910390a1565b600060149054906101000a900460ff1681565b600060159054906101000a900460ff1681565b60016020528060005260406000206000915090508060000160009054906101000a900460ff16908060000160019054906101000a900460ff16908060010154905083565b60008054906101000a900473ffffffffffffffffffffffffffffffffffffffff1673ffffffffffffffffffffffffffffffffffffffff163373ffffffffffffffffffffffffffffffffffffffff1614610b14576040517f08c379a0000000000000000000000000000000000000000000000000000000008152600401610b0b90611261565b60405180910390fd5b600060149054906101000a900460ff16610b63576040517f08c379a0000000000000000000000000000000000000000000000000000000008152600401610b5a906111a1565b60405180910390fd5b600060159054906101000a900460ff1615610bb3576040517f08c379a0000000000000000000000000000000000000000000000000000000008152600401610baa906112a1565b60405180910390fd5b6001600060156101000a81548160ff0219169083151502179055507f58a587d218b5732ea4aa95fdc9c2449c467d58b36fc81f672e3f5db07d49e98960405160405180910390a1565b60008054906101000a900473ffffffffffffffffffffffffffffffffffffffff1681565b600081359050610c2f816114d7565b92915050565b600081359050610c44816114ee565b92915050565b600060208284031215610c5c57600080fd5b6000610c6a84828501610c20565b91505092915050565b600060208284031215610c8557600080fd5b6000610c9384828501610c35565b91505092915050565b6000610ca8838361105b565b905092915050565b610cb9816113bb565b82525050565b6000610cca8261130f565b610cd48185611332565b935083602082028501610ce6856112ff565b8060005b85811015610d225784840389528151610d038582610c9c565b9450610d0e83611325565b925060208a01995050600181019050610cea565b50829750879550505050505092915050565b610d3d816113cd565b82525050565b6000610d4e8261131a565b610d588185611343565b9350610d68818560208601611403565b610d71816114c6565b840191505092915050565b6000610d878261131a565b610d918185611354565b9350610da1818560208601611403565b610daa816114c6565b840191505092915050565b6000610dc2601883611354565b91507f566f74696e6720686173206e6f7420656e6465642079657400000000000000006000830152602082019050919050565b6000610e02601a83611354565b91507f566f74696e6720686173206e6f742073746172746564207965740000000000006000830152602082019050919050565b6000610e42601e83611354565b91507f596f7520617265206e6f74207265676973746572656420746f20766f746500006000830152602082019050919050565b6000610e82601483611354565b91507f566f74696e67206973206e6f74206163746976650000000000000000000000006000830152602082019050919050565b6000610ec2601a83611354565b91507f566f74696e672068617320616c726561647920737461727465640000000000006000830152602082019050919050565b6000610f02601b83611354565b91507f566f74657220697320616c7265616479207265676973746572656400000000006000830152602082019050919050565b6000610f42601483611354565b91507f496e76616c69642063616e6469646174652049440000000000000000000000006000830152602082019050919050565b6000610f82602183611354565b91507f4f6e6c792061646d696e2063616e2063616c6c20746869732066756e6374696f60008301527f6e000000000000000000000000000000000000000000000000000000000000006020830152604082019050919050565b6000610fe8601683611354565b91507f596f75206861766520616c726561647920766f746564000000000000000000006000830152602082019050919050565b6000611028601883611354565b91507f566f74696e672068617320616c726561647920656e64656400000000000000006000830152602082019050919050565b600060608301600083015161107360008601826110ab565b506020830151848203602086015261108b8282610d43565b91505060408301516110a060408601826110ab565b508091505092915050565b6110b4816113f9565b82525050565b6110c3816113f9565b82525050565b60006020820190506110de6000830184610cb0565b92915050565b60006040820190506110f96000830185610cb0565b61110660208301846110ba565b9392505050565b600060208201905081810360008301526111278184610cbf565b905092915050565b60006020820190506111446000830184610d34565b92915050565b600060608201905061115f6000830186610d34565b61116c6020830185610d34565b61117960408301846110ba565b949350505050565b6000602082019050818103600083015261119a81610db5565b9050919050565b600060208201905081810360008301526111ba81610df5565b9050919050565b600060208201905081810360008301526111da81610e35565b9050919050565b600060208201905081810360008301526111fa81610e75565b9050919050565b6000602082019050818103600083015261121a81610eb5565b9050919050565b6000602082019050818103600083015261123a81610ef5565b9050919050565b6000602082019050818103600083015261125a81610f35565b9050919050565b6000602082019050818103600083015261127a81610f75565b9050919050565b6000602082019050818103600083015261129a81610fdb565b9050919050565b600060208201905081810360008301526112ba8161101b565b9050919050565b60006060820190506112d660008301866110ba565b81810360208301526112e88185610d7c565b90506112f760408301846110ba565b949350505050565b6000819050602082019050919050565b600081519050919050565b600081519050919050565b6000602082019050919050565b600082825260208201905092915050565b600082825260208201905092915050565b600082825260208201905092915050565b6000611370826113f9565b915061137b836113f9565b9250827fffffffffffffffffffffffffffffffffffffffffffffffffffffffffffffffff038211156113b0576113af611468565b5b828201905092915050565b60006113c6826113d9565b9050919050565b60008115159050919050565b600073ffffffffffffffffffffffffffffffffffffffff82169050919050565b6000819050919050565b60005b83811015611421578082015181840152602081019050611406565b83811115611430576000848401525b50505050565b6000600282049050600182168061144e57607f821691505b6020821081141561146257611461611497565b5b50919050565b7f4e487b7100000000000000000000000000000000000000000000000000000000600052601160045260246000fd5b7f4e487b7100000000000000000000000000000000000000000000000000000000600052602260045260246000fd5b6000601f19601f8301169050919050565b6114e0816113bb565b81146114eb57600080fd5b50565b6114f7816113f9565b811461150257600080fd5b5056fea2646970667358221220960dd56d35506dec09b5fc3ab4004092fcce1c9e3aad6890eb8e945289f7f2f464736f6c63430008000033",
  "immutableReferences": {},
  "source": "\n// SPDX-License-Identifier: MIT\npragma solidity ^0.8.0;\n\ncontract Voting {\n    address public admin;\n    bool public votingStarted;\n    bool public votingEnded;\n\n    struct Voter {\n        bool isRegistered;\n        bool hasVoted;\n        uint vote;\n    }\n\n    struct Candidate {\n        uint id;\n        string name;\n        uint voteCount;\n    }\n\n    mapping(address => Voter) public voters;\n    Candidate[] public candidates;\n\n    event VoterRegistered(address voter);\n    event VoteStarted();\n    event VoteEnded();\n    event Voted(address voter, uint candidateId);\n\n    modifier onlyAdmin() {\n        require(msg.sender == admin, \"Only admin can call this function\");\n        _;\n    }\n\n    modifier onlyDuringVoting() {\n        require(votingStarted && !votingEnded, \"Voting is not active\");\n        _;\n    }\n\n    constructor(string[] memory candidateNames) {\n        admin = msg.sender;\n        for (uint i = 0; i < candidateNames.length; i++) {\n            candidates.push(Candidate({\n                id: i,\n                name: candidateNames[i],\n                voteCount: 0\n            }));\n        }\n    }\n\n    function registerVoter(address voterAddress) public onlyAdmin {\n        require(!voters[voterAddress].isRegistered, \"Voter is already registered\");\n        voters[voterAddress] = Voter({\n            isRegistered: true,\n            hasVoted: false,\n            vote: 0\n        });\n        emit VoterRegistered(voterAddress);\n    }\n\n    function startVote() public onlyAdmin {\n        require(!votingStarted, \"Voting has already started\");\n        votingStarted = true;\n        emit VoteStarted();\n    }\n\n    function endVote() public onlyAdmin {\n        require(votingStarted, \"Voting has not started yet\");\n        require(!votingEnded, \"Voting has already ended\");\n        votingEnded = true;\n        emit VoteEnded();\n    }\n\n    function vote(uint candidateId) public onlyDuringVoting {\n        require(voters[msg.sender].isRegistered, \"You are not registered to vote\");\n        require(!voters[msg.sender].hasVoted, \"You have already voted\");\n        require(candidateId < candidates.length, \"Invalid candidate ID\");\n\n        voters[msg.sender].hasVoted = true;\n        voters[msg.sender].vote = candidateId;\n        candidates[candidateId].voteCount += 1;\n\n        emit Voted(msg.sender, candidateId);\n    }\n\n    function getResults() public view returns (Candidate[] memory) {\n        require(votingEnded, \"Voting has not ended yet\");\n        return candidates;\n    }\n}\n",
  "sourcePath": "/home/user/voting-system/contracts/Voting.sol",
  "compiler": {
    "name": "solc",
    "version": "0.8.0+commit.c7dfd78e.Emscripten.clang"
  },
  "schemaVersion": "3.4.16",
  "updatedAt": "2024-10-14T03:37:44.902Z",
  "networkType": "ethereum",
  "devdoc": {
    "kind": "dev",
    "methods": {},
    "version": 1
  },
  "userdoc": {
    "kind": "user",
    "methods": {},
    "version": 1
  }
}